Component: ARM Compiler 5.06 update 5 (build 528) Tool: armlink [4d35e2]

==============================================================================

Section Cross References

    startup_lpc11xx.o(STACK) refers (Special) to heapauxi.o(.text) for __use_two_region_memory
    startup_lpc11xx.o(HEAP) refers (Special) to heapauxi.o(.text) for __use_two_region_memory
    startup_lpc11xx.o(RESET) refers (Special) to heapauxi.o(.text) for __use_two_region_memory
    startup_lpc11xx.o(RESET) refers to startup_lpc11xx.o(STACK) for __initial_sp
    startup_lpc11xx.o(RESET) refers to startup_lpc11xx.o(.text) for Reset_Handler
    startup_lpc11xx.o(RESET) refers to main.o(.text) for SysTick_Handler
    startup_lpc11xx.o(RESET) refers to can.o(.text) for CAN_IRQHandler
    startup_lpc11xx.o(RESET) refers to ssp.o(.text) for SSP1_IRQHandler
    startup_lpc11xx.o(RESET) refers to i2c.o(.text) for I2C_IRQHandler
    startup_lpc11xx.o(RESET) refers to timer32.o(.text) for TIMER32_0_IRQHandler
    startup_lpc11xx.o(RESET) refers to uart.o(.text) for UART_IRQHandler
    startup_lpc11xx.o(RESET) refers to wdt.o(.text) for WDT_IRQHandler
    startup_lpc11xx.o(RESET) refers to lpc11c14_it.o(.text) for PIOINT3_IRQHandler
    startup_lpc11xx.o(.ARM.__at_0x02FC) refers (Special) to heapauxi.o(.text) for __use_two_region_memory
    startup_lpc11xx.o(.text) refers (Special) to heapauxi.o(.text) for __use_two_region_memory
    startup_lpc11xx.o(.text) refers to __main.o(!!!main) for __main
    startup_lpc11xx.o(.text) refers to startup_lpc11xx.o(HEAP) for Heap_Mem
    startup_lpc11xx.o(.text) refers to startup_lpc11xx.o(STACK) for Stack_Mem
==============================================================================

Removing Unused input sections from the image.

    Removing core_cm0.o(.emb_text), (32 bytes).
    Removing ssp.o(.bss), (32 bytes).
    Removing ssp.o(.constdata), (16 bytes).
    Removing can.o(.constdata), (16 bytes).
    Removing adc.o(.data), (8 bytes).
    Removing tools.o(.constdata), (16 bytes).
    Removing key.o(.constdata), (16 bytes).
    Removing temp_hum.o(.constdata), (16 bytes).
    Removing rfid.o(.constdata), (48 bytes).
    Removing spi_uart.o(.constdata), (16 bytes).
    Removing main.o(.constdata), (16 bytes).
    Removing sensor.o(.text), (244 bytes).
    Removing sensor.o(.constdata), (16 bytes).
    Removing led_spk_fan.o(.constdata), (16 bytes).
    Removing lpc11c14_it.o(.constdata), (16 bytes).
    Removing collect_data.o(.constdata), (16 bytes).
    Removing file_operations.o(.constdata), (16 bytes).
    Removing sys_init.o(.constdata), (16 bytes).
==============================================================================

Image Symbol Table

    Local Symbols

    Symbol Name                              Value     Ov Type        Size  Object(Section)

    RESET                                    0x00000000   Section      192  startup_lpc11xx.o(RESET)
    ../clib/../cmprslib/zerorunl2.c          0x00000000   Number         0  __dczerorl2.o ABSOLUTE
    ../clib/angel/boardlib.s                 0x00000000   Number         0  boardinit1.o ABSOLUTE
    ../clib/angel/boardlib.s                 0x00000000   Number         0  boardinit2.o ABSOLUTE
    ../clib/angel/boardlib.s                 0x00000000   Number         0  boardinit3.o ABSOLUTE
    ../clib/angel/boardlib.s                 0x00000000   Number         0  boardshut.o ABSOLUTE
    ../clib/angel/handlers.s                 0x00000000   Number         0  __scatter_zi.o ABSOLUTE
    ../clib/angel/kernel.s                   0x00000000   Number         0  __rtentry4.o ABSOLUTE
    ../clib/angel/kernel.s                   0x00000000   Number         0  __rtentry2.o ABSOLUTE
    ../clib/angel/kernel.s                   0x00000000   Number         0  rtexit.o ABSOLUTE
    ../clib/angel/kernel.s                   0x00000000   Number         0  rtexit2.o ABSOLUTE
    ../clib/angel/kernel.s                   0x00000000   Number         0  __rtentry.o ABSOLUTE
    ../clib/angel/rt.s                       0x00000000   Number         0  rt_div0.o ABSOLUTE
    ../clib/angel/rt.s                       0x00000000   Number         0  rt_raise.o ABSOLUTE
    ../clib/angel/rt.s                       0x00000000   Number         0  rt_ctype_table.o ABSOLUTE
    ../clib/angel/rt.s                       0x00000000   Number         0  rt_locale_intlibspace.o ABSOLUTE
    ../clib/angel/rt.s                       0x00000000   Number         0  rt_locale.o ABSOLUTE
    ../clib/angel/rt.s                       0x00000000   Number         0  aeabi_idiv0_sigfpe.o ABSOLUTE
    ../clib/angel/rt.s                       0x00000000   Number         0  aeabi_idiv0.o ABSOLUTE
    ../clib/angel/scatterp.s                 0x00000000   Number         0  __scatter.o ABSOLUTE
    ../clib/angel/startup.s                  0x00000000   Number         0  __main.o ABSOLUTE
    ../clib/angel/sys.s                      0x00000000   Number         0  tempstk.o ABSOLUTE
    ../clib/angel/sys.s                      0x00000000   Number         0  use_no_semi.o ABSOLUTE
    ../clib/angel/sys.s                      0x00000000   Number         0  sys_stackheap_outer.o ABSOLUTE
    ../clib/angel/sys.s                      0x00000000   Number         0  indicate_semi.o ABSOLUTE
    ../clib/angel/sys.s                      0x00000000   Number         0  libspace.o ABSOLUTE
    ../clib/angel/sysapp.c                   0x00000000   Number         0  sys_command.o ABSOLUTE
    ../clib/armsys.c                         0x00000000   Number         0  no_argv.o ABSOLUTE
    ../clib/armsys.c                         0x00000000   Number         0  _get_argv_nomalloc.o ABSOLUTE
    ../clib/armsys.c                         0x00000000   Number         0  argv_veneer.o ABSOLUTE
    ../clib/bigflt.c                         0x00000000   Number         0  bigflt0.o ABSOLUTE
    ../clib/btod.c                           0x00000000   Number         0  btod.o ABSOLUTE
    ../clib/division.c                       0x00000000   Number         0  rtudiv10.o ABSOLUTE
    ../clib/division.c                       0x00000000   Number         0  lludiv10.o ABSOLUTE
    ../clib/division.s                       0x00000000   Number         0  aeabi_sdiv_div0.o ABSOLUTE
    ../clib/division.s                       0x00000000   Number         0  aeabi_sdiv.o ABSOLUTE
    ../clib/heapalloc.c                      0x00000000   Number         0  hrguard.o ABSOLUTE
    ../clib/heapaux.c                        0x00000000   Number         0  heapauxi.o ABSOLUTE
    ../clib/libinit.s                        0x00000000   Number         0  libinit2.o ABSOLUTE
    ../clib/libinit.s                        0x00000000   Number         0  libshutdown.o ABSOLUTE
    ../clib/libinit.s                        0x00000000   Number         0  libshutdown2.o ABSOLUTE
    ../clib/libinit.s                        0x00000000   Number         0  libinit.o ABSOLUTE
    ../clib/locale.c                         0x00000000   Number         0  _wcrtomb.o ABSOLUTE
    ../clib/locale.s                         0x00000000   Number         0  lc_ctype_c.o ABSOLUTE
    ../clib/locale.s                         0x00000000   Number         0  lc_numeric_c.o ABSOLUTE
    ../clib/memcpset.c                       0x00000000   Number         0  aeabi_memset.o ABSOLUTE
    ../clib/memcpset.c                       0x00000000   Number         0  rt_memcpy.o ABSOLUTE
    ../clib/memcpset.c                       0x00000000   Number         0  rt_memcpy.o ABSOLUTE
    ../clib/memcpset.c                       0x00000000   Number         0  rt_memclr.o ABSOLUTE
    ../clib/misc.s                           0x00000000   Number         0  printf_stubs.o ABSOLUTE
    ../clib/printf.c                         0x00000000   Number         0  __2snprintf.o ABSOLUTE
    ../clib/printf.c                         0x00000000   Number         0  __2sprintf.o ABSOLUTE
    ../clib/printf.c                         0x00000000   Number         0  __2printf.o ABSOLUTE
    ../clib/printf.c                         0x00000000   Number         0  noretval__2printf.o ABSOLUTE
    ../clib/printf.c                         0x00000000   Number         0  _printf_charcount.o ABSOLUTE
    ../clib/printf.c                         0x00000000   Number         0  _printf_char_common.o ABSOLUTE
    ../clib/printf.c                         0x00000000   Number         0  _printf_intcommon.o ABSOLUTE
    ../clib/printf.c                         0x00000000   Number         0  _printf_oct_int_ll.o ABSOLUTE
    ../clib/printf.c                         0x00000000   Number         0  _printf_oct_int.o ABSOLUTE
    ../clib/printf.c                         0x00000000   Number         0  _printf_oct_ll.o ABSOLUTE
    ../clib/printf.c                         0x00000000   Number         0  __printf_flags_ss_wp.o ABSOLUTE
    ../clib/printf.c                         0x00000000   Number         0  c89vsnprintf.o ABSOLUTE
    ../clib/printf.c                         0x00000000   Number         0  _printf_hex_ll.o ABSOLUTE
    ../clib/printf.c                         0x00000000   Number         0  __printf_flags_wp.o ABSOLUTE
    ../clib/printf.c                         0x00000000   Number         0  _printf_longlong_dec.o ABSOLUTE
    ../clib/printf.c                         0x00000000   Number         0  __printf_wp.o ABSOLUTE
    ../clib/printf.c                         0x00000000   Number         0  _printf_wctomb.o ABSOLUTE
    ../clib/printf.c                         0x00000000   Number         0  _printf_char_file.o ABSOLUTE
    ../clib/printf.c                         0x00000000   Number         0  __printf_flags_ss.o ABSOLUTE
    ../clib/printf.c                         0x00000000   Number         0  _printf_truncate.o ABSOLUTE
    ../clib/printf.c                         0x00000000   Number         0  __printf_flags.o ABSOLUTE
    ../clib/printf.c                         0x00000000   Number         0  _printf_hex_int_ll_ptr.o ABSOLUTE
    ../clib/printf.c                         0x00000000   Number         0  _printf_dec.o ABSOLUTE
    ../clib/printf.c                         0x00000000   Number         0  _printf_hex_ll_ptr.o ABSOLUTE
    ../clib/printf.c                         0x00000000   Number         0  _printf_hex_int_ptr.o ABSOLUTE
    ../clib/printf.c                         0x00000000   Number         0  _printf_hex_ptr.o ABSOLUTE
    ../clib/printf.c                         0x00000000   Number         0  _printf_pad.o ABSOLUTE
    ../clib/printf.c                         0x00000000   Number         0  noretval__2snprintf.o ABSOLUTE
    ../clib/printf.c                         0x00000000   Number         0  _printf_fp_infnan.o ABSOLUTE
    ../clib/printf.c                         0x00000000   Number         0  _snputc.o ABSOLUTE
    ../clib/printf.c                         0x00000000   Number         0  noretval__2sprintf.o ABSOLUTE
    ../clib/printf.c                         0x00000000   Number         0  _printf_str.o ABSOLUTE
    ../clib/printf.c                         0x00000000   Number         0  __printf.o ABSOLUTE
    ../clib/printf.c                         0x00000000   Number         0  _sputc.o ABSOLUTE
    ../clib/printf.c                         0x00000000   Number         0  __printf_ss_wp.o ABSOLUTE
    ../clib/printf.c                         0x00000000   Number         0  _printf_wchar.o ABSOLUTE
    ../clib/printf.c                         0x00000000   Number         0  _printf_char.o ABSOLUTE
    ../clib/printf.c                         0x00000000   Number         0  _printf_hex_int_ll.o ABSOLUTE
    ../clib/printf.c                         0x00000000   Number         0  __printf_nopercent.o ABSOLUTE
    ../clib/printf.c                         0x00000000   Number         0  _printf_hex_int.o ABSOLUTE
    ../clib/printf.c                         0x00000000   Number         0  _printf_fp_dec.o ABSOLUTE
    ../clib/printf.c                         0x00000000   Number         0  __printf_ss.o ABSOLUTE
    ../clib/printf_percent.s                 0x00000000   Number         0  _printf_a.o ABSOLUTE
    ../clib/printf_percent.s                 0x00000000   Number         0  _printf_g.o ABSOLUTE
    ../clib/printf_percent.s                 0x00000000   Number         0  _printf_e.o ABSOLUTE
    ../clib/printf_percent.s                 0x00000000   Number         0  _printf_f.o ABSOLUTE
    ../clib/printf_percent.s                 0x00000000   Number         0  _printf_u.o ABSOLUTE
    ../clib/printf_percent.s                 0x00000000   Number         0  _printf_i.o ABSOLUTE
    ../clib/printf_percent.s                 0x00000000   Number         0  _printf_d.o ABSOLUTE
    ../clib/printf_percent.s                 0x00000000   Number         0  _printf_percent.o ABSOLUTE
    ../clib/printf_percent.s                 0x00000000   Number         0  _printf_o.o ABSOLUTE
    ../clib/printf_percent.s                 0x00000000   Number         0  _printf_p.o ABSOLUTE
    ../clib/printf_percent.s                 0x00000000   Number         0  _printf_n.o ABSOLUTE
    ../clib/printf_percent.s                 0x00000000   Number         0  _printf_s.o ABSOLUTE
    ../clib/printf_percent.s                 0x00000000   Number         0  _printf_x.o ABSOLUTE
    ../clib/printf_percent.s                 0x00000000   Number         0  _printf_c.o ABSOLUTE
    ../clib/printf_percent.s                 0x00000000   Number         0  _printf_l.o ABSOLUTE
    ../clib/printf_percent.s                 0x00000000   Number         0  _printf_llx.o ABSOLUTE
    ../clib/printf_percent.s                 0x00000000   Number         0  _printf_llo.o ABSOLUTE
    ../clib/printf_percent.s                 0x00000000   Number         0  _printf_ls.o ABSOLUTE
    ../clib/printf_percent.s                 0x00000000   Number         0  _printf_lc.o ABSOLUTE
    ../clib/printf_percent.s                 0x00000000   Number         0  _printf_ll.o ABSOLUTE
    ../clib/printf_percent.s                 0x00000000   Number         0  _printf_llu.o ABSOLUTE
    ../clib/printf_percent.s                 0x00000000   Number         0  _printf_lld.o ABSOLUTE
    ../clib/printf_percent.s                 0x00000000   Number         0  _printf_lli.o ABSOLUTE
    ../clib/printf_percent.s                 0x00000000   Number         0  _printf_percent_end.o ABSOLUTE
    ../clib/signal.c                         0x00000000   Number         0  defsig_other.o ABSOLUTE
    ../clib/signal.c                         0x00000000   Number         0  defsig_segv_inner.o ABSOLUTE
    ../clib/signal.c                         0x00000000   Number         0  defsig_cppl_inner.o ABSOLUTE
    ../clib/signal.c                         0x00000000   Number         0  defsig_pvfn_inner.o ABSOLUTE
    ../clib/signal.c                         0x00000000   Number         0  defsig_stak_inner.o ABSOLUTE
    ../clib/signal.c                         0x00000000   Number         0  defsig_rtmem_formal.o ABSOLUTE
    ../clib/signal.c                         0x00000000   Number         0  defsig_rtmem_outer.o ABSOLUTE
    ../clib/signal.c                         0x00000000   Number         0  __raise.o ABSOLUTE
    ../clib/signal.c                         0x00000000   Number         0  defsig_exit.o ABSOLUTE
    ../clib/signal.c                         0x00000000   Number         0  defsig_fpe_outer.o ABSOLUTE
    ../clib/signal.c                         0x00000000   Number         0  defsig_rtmem_inner.o ABSOLUTE
    ../clib/signal.c                         0x00000000   Number         0  defsig_rtred_inner.o ABSOLUTE
    ../clib/signal.c                         0x00000000   Number         0  defsig_fpe_inner.o ABSOLUTE
    ../clib/signal.c                         0x00000000   Number         0  defsig_abrt_inner.o ABSOLUTE
    ../clib/signal.c                         0x00000000   Number         0  defsig_fpe_formal.o ABSOLUTE
    ../clib/signal.c                         0x00000000   Number         0  defsig_general.o ABSOLUTE
    ../clib/signal.s                         0x00000000   Number         0  defsig.o ABSOLUTE
    ../clib/stdlib.c                         0x00000000   Number         0  exit.o ABSOLUTE
    ../clib/string.c                         0x00000000   Number         0  strcpy.o ABSOLUTE
    ../clib/string.c                         0x00000000   Number         0  strcmp.o ABSOLUTE
    ../fplib/cfplib/d2f.c                    0x00000000   Number         0  d2f.o ABSOLUTE
    ../fplib/cfplib/ddiv.c                   0x00000000   Number         0  ddiv.o ABSOLUTE
    ../fplib/cfplib/dmul.c                   0x00000000   Number         0  dmul.o ABSOLUTE
    ../fplib/cfplib/ffix.c                   0x00000000   Number         0  ffixui.o ABSOLUTE
    ../fplib/cfplib/fflt.c                   0x00000000   Number         0  dflti.o ABSOLUTE
    ../fplib/cfplib/fpinit.c                 0x00000000   Number         0  fpinit.o ABSOLUTE
    ../fplib/cfplib/ieee_status.c            0x00000000   Number         0  ieee_status.o ABSOLUTE
    ../fplib/fmul6m.s                        0x00000000   Number         0  fmul.o ABSOLUTE
    ../fplib/printf1.s                       0x00000000   Number         0  printf1.o ABSOLUTE
    ../fplib/usenofp.s                       0x00000000   Number         0  usenofp.o ABSOLUTE
    ../mathlib/fpclassify.c                  0x00000000   Number         0  fpclassify.o ABSOLUTE
    ..\Lib_BSP\src\acc.c                     0x00000000   Number         0  acc.o ABSOLUTE
    ..\Lib_BSP\src\key.c                     0x00000000   Number         0  key.o ABSOLUTE
    ..\Lib_BSP\src\light.c                   0x00000000   Number         0  light.o ABSOLUTE
    ..\Lib_BSP\src\oled2864.c                0x00000000   Number         0  oled2864.o ABSOLUTE
    ..\Lib_BSP\src\rfid.c                    0x00000000   Number         0  rfid.o ABSOLUTE
    ..\Lib_BSP\src\seg7led.c                 0x00000000   Number         0  seg7led.o ABSOLUTE
    ..\Lib_BSP\src\spi_uart.c                0x00000000   Number         0  spi_uart.o ABSOLUTE
    ..\Lib_BSP\src\temp_hum.c                0x00000000   Number         0  temp_hum.o ABSOLUTE
    ..\Lib_BSP\src\tools.c                   0x00000000   Number         0  tools.o ABSOLUTE
    ..\Lib_MCU\src\adc.c                     0x00000000   Number         0  adc.o ABSOLUTE
    ..\Lib_MCU\src\can.c                     0x00000000   Number         0  can.o ABSOLUTE
    ..\Lib_MCU\src\clkconfig.c               0x00000000   Number         0  clkconfig.o ABSOLUTE
    ..\Lib_MCU\src\core_cm0.c                0x00000000   Number         0  core_cm0.o ABSOLUTE
    ..\Lib_MCU\src\gpio.c                    0x00000000   Number         0  gpio.o ABSOLUTE
    ..\Lib_MCU\src\i2c.c                     0x00000000   Number         0  i2c.o ABSOLUTE
    ..\Lib_MCU\src\retarget.c                0x00000000   Number         0  retarget.o ABSOLUTE
    ..\Lib_MCU\src\ssp.c                     0x00000000   Number         0  ssp.o ABSOLUTE
    ..\Lib_MCU\src\startup_LPC11xx.s         0x00000000   Number         0  startup_lpc11xx.o ABSOLUTE
    ..\Lib_MCU\src\system_LPC11xx.c          0x00000000   Number         0  system_lpc11xx.o ABSOLUTE
    ..\Lib_MCU\src\timer32.c                 0x00000000   Number         0  timer32.o ABSOLUTE
    ..\Lib_MCU\src\uart.c                    0x00000000   Number         0  uart.o ABSOLUTE
    ..\Lib_MCU\src\wdt.c                     0x00000000   Number         0  wdt.o ABSOLUTE
    ..\\Lib_MCU\\src\\core_cm0.c             0x00000000   Number         0  core_cm0.o ABSOLUTE
    dc.s                                     0x00000000   Number         0  dc.o ABSOLUTE
    operation\src\file_operations.c          0x00000000   Number         0  file_operations.o ABSOLUTE
    operation\src\sys_init.c                 0x00000000   Number         0  sys_init.o ABSOLUTE
    src\collect_data.c                       0x00000000   Number         0  collect_data.o ABSOLUTE
    src\led_spk_fan.c                        0x00000000   Number         0  led_spk_fan.o ABSOLUTE
    src\lpc11c14_it.c                        0x00000000   Number         0  lpc11c14_it.o ABSOLUTE
    src\main.c                               0x00000000   Number         0  main.o ABSOLUTE
    src\menu.c                               0x00000000   Number         0  menu.o ABSOLUTE
    src\myrfid.c                             0x00000000   Number         0  myrfid.o ABSOLUTE
    src\sensor.c                             0x00000000   Number         0  sensor.o ABSOLUTE
    !!!main                                  0x000000c0   Section        8  __main.o(!!!main)
    !!!scatter                               0x000000c8   Section       60  __scatter.o(!!!scatter)
    !!handler_zi                             0x00000104   Section       28  __scatter_zi.o(!!handler_zi)
    .ARM.Collect$$_printf_percent$$00000000  0x00000120   Section        2  _printf_percent.o(.ARM.Collect$$_printf_percent$$00000000)
    .ARM.Collect$$_printf_percent$$00000001  0x00000122   Section       10  _printf_n.o(.ARM.Collect$$_printf_percent$$00000001)
    .ARM.Collect$$_printf_percent$$00000002  0x0000012c   Section       10  _printf_p.o(.ARM.Collect$$_printf_percent$$00000002)
    .ARM.Collect$$_printf_percent$$00000003  0x00000136   Section       10  _printf_f.o(.ARM.Collect$$_printf_percent$$00000003)
    .ARM.Collect$$_printf_percent$$00000004  0x00000140   Section       10  _printf_e.o(.ARM.Collect$$_printf_percent$$00000004)
    .ARM.Collect$$_printf_percent$$00000005  0x0000014a   Section       10  _printf_g.o(.ARM.Collect$$_printf_percent$$00000005)
    .ARM.Collect$$_printf_percent$$00000006  0x00000154   Section       10  _printf_a.o(.ARM.Collect$$_printf_percent$$00000006)
    .ARM.Collect$$_printf_percent$$00000007  0x0000015e   Section       10  _printf_ll.o(.ARM.Collect$$_printf_percent$$00000007)
    .ARM.Collect$$_printf_percent$$00000008  0x00000168   Section       10  _printf_i.o(.ARM.Collect$$_printf_percent$$00000008)
    .ARM.Collect$$_printf_percent$$00000009  0x00000172   Section       10  _printf_d.o(.ARM.Collect$$_printf_percent$$00000009)
    .ARM.Collect$$_printf_percent$$0000000A  0x0000017c   Section       10  _printf_u.o(.ARM.Collect$$_printf_percent$$0000000A)
    .ARM.Collect$$_printf_percent$$0000000B  0x00000186   Section       10  _printf_o.o(.ARM.Collect$$_printf_percent$$0000000B)
    .ARM.Collect$$_printf_percent$$0000000C  0x00000190   Section       10  _printf_x.o(.ARM.Collect$$_printf_percent$$0000000C)
    .ARM.Collect$$_printf_percent$$0000000D  0x0000019a   Section       10  _printf_lli.o(.ARM.Collect$$_printf_percent$$0000000D)
    .ARM.Collect$$_printf_percent$$0000000E  0x000001a4   Section       10  _printf_lld.o(.ARM.Collect$$_printf_percent$$0000000E)
    .ARM.Collect$$_printf_percent$$0000000F  0x000001ae   Section       10  _printf_llu.o(.ARM.Collect$$_printf_percent$$0000000F)
    .ARM.Collect$$_printf_percent$$00000010  0x000001b8   Section       10  _printf_llo.o(.ARM.Collect$$_printf_percent$$00000010)
    .ARM.Collect$$_printf_percent$$00000011  0x000001c2   Section       10  _printf_llx.o(.ARM.Collect$$_printf_percent$$00000011)
    .ARM.Collect$$_printf_percent$$00000012  0x000001cc   Section       10  _printf_l.o(.ARM.Collect$$_printf_percent$$00000012)
    .ARM.Collect$$_printf_percent$$00000013  0x000001d6   Section       10  _printf_c.o(.ARM.Collect$$_printf_percent$$00000013)
    .ARM.Collect$$_printf_percent$$00000014  0x000001e0   Section       10  _printf_s.o(.ARM.Collect$$_printf_percent$$00000014)
    .ARM.Collect$$_printf_percent$$00000015  0x000001ea   Section       10  _printf_lc.o(.ARM.Collect$$_printf_percent$$00000015)
    .ARM.Collect$$_printf_percent$$00000016  0x000001f4   Section       10  _printf_ls.o(.ARM.Collect$$_printf_percent$$00000016)
    .ARM.Collect$$_printf_percent$$00000017  0x000001fe   Section        4  _printf_percent_end.o(.ARM.Collect$$_printf_percent$$00000017)
    .ARM.Collect$$libinit$$00000000          0x00000202   Section        2  libinit.o(.ARM.Collect$$libinit$$00000000)
    .ARM.Collect$$libinit$$00000002          0x00000204   Section        0  libinit2.o(.ARM.Collect$$libinit$$00000002)
    .ARM.Collect$$libinit$$00000004          0x00000204   Section        0  libinit2.o(.ARM.Collect$$libinit$$00000004)
    .ARM.Collect$$libinit$$0000000A          0x00000204   Section        0  libinit2.o(.ARM.Collect$$libinit$$0000000A)
    .ARM.Collect$$libinit$$0000000C          0x00000204   Section        0  libinit2.o(.ARM.Collect$$libinit$$0000000C)
    .ARM.Collect$$libinit$$0000000E          0x00000204   Section        0  libinit2.o(.ARM.Collect$$libinit$$0000000E)
    .ARM.Collect$$libinit$$0000000F          0x00000204   Section        6  libinit2.o(.ARM.Collect$$libinit$$0000000F)
    .ARM.Collect$$libinit$$00000011          0x0000020a   Section        0  libinit2.o(.ARM.Collect$$libinit$$00000011)
    .ARM.Collect$$libinit$$00000012          0x0000020a   Section       12  libinit2.o(.ARM.Collect$$libinit$$00000012)
    .ARM.Collect$$libinit$$00000013          0x00000216   Section        0  libinit2.o(.ARM.Collect$$libinit$$00000013)
    .ARM.Collect$$libinit$$00000015          0x00000216   Section        0  libinit2.o(.ARM.Collect$$libinit$$00000015)
    .ARM.Collect$$libinit$$00000016          0x00000216   Section       10  libinit2.o(.ARM.Collect$$libinit$$00000016)
    .ARM.Collect$$libinit$$00000017          0x00000220   Section        0  libinit2.o(.ARM.Collect$$libinit$$00000017)
    .ARM.Collect$$libinit$$00000019          0x00000220   Section        0  libinit2.o(.ARM.Collect$$libinit$$00000019)
    .ARM.Collect$$libinit$$0000001B          0x00000220   Section        0  libinit2.o(.ARM.Collect$$libinit$$0000001B)
    .ARM.Collect$$libinit$$0000001D          0x00000220   Section        0  libinit2.o(.ARM.Collect$$libinit$$0000001D)
    .ARM.Collect$$libinit$$0000001F          0x00000220   Section        0  libinit2.o(.ARM.Collect$$libinit$$0000001F)
    .ARM.Collect$$libinit$$00000021          0x00000220   Section        0  libinit2.o(.ARM.Collect$$libinit$$00000021)
    .ARM.Collect$$libinit$$00000023          0x00000220   Section        0  libinit2.o(.ARM.Collect$$libinit$$00000023)
    .ARM.Collect$$libinit$$00000025          0x00000220   Section        0  libinit2.o(.ARM.Collect$$libinit$$00000025)
    .ARM.Collect$$libinit$$0000002C          0x00000220   Section        0  libinit2.o(.ARM.Collect$$libinit$$0000002C)
    .ARM.Collect$$libinit$$0000002E          0x00000220   Section        0  libinit2.o(.ARM.Collect$$libinit$$0000002E)
    .ARM.Collect$$libinit$$00000030          0x00000220   Section        0  libinit2.o(.ARM.Collect$$libinit$$00000030)
    .ARM.Collect$$libinit$$00000032          0x00000220   Section        0  libinit2.o(.ARM.Collect$$libinit$$00000032)
    .ARM.Collect$$libinit$$00000033          0x00000220   Section        2  libinit2.o(.ARM.Collect$$libinit$$00000033)
    .ARM.Collect$$libshutdown$$00000000      0x00000222   Section        2  libshutdown.o(.ARM.Collect$$libshutdown$$00000000)
    .ARM.Collect$$libshutdown$$00000002      0x00000224   Section        0  libshutdown2.o(.ARM.Collect$$libshutdown$$00000002)
    .ARM.Collect$$libshutdown$$00000004      0x00000224   Section        0  libshutdown2.o(.ARM.Collect$$libshutdown$$00000004)
    .ARM.Collect$$libshutdown$$00000007      0x00000224   Section        0  libshutdown2.o(.ARM.Collect$$libshutdown$$00000007)
    .ARM.Collect$$libshutdown$$0000000A      0x00000224   Section        0  libshutdown2.o(.ARM.Collect$$libshutdown$$0000000A)
    .ARM.Collect$$libshutdown$$0000000C      0x00000224   Section        0  libshutdown2.o(.ARM.Collect$$libshutdown$$0000000C)
    .ARM.Collect$$libshutdown$$0000000F      0x00000224   Section        0  libshutdown2.o(.ARM.Collect$$libshutdown$$0000000F)
    .ARM.Collect$$libshutdown$$00000010      0x00000224   Section        2  libshutdown2.o(.ARM.Collect$$libshutdown$$00000010)
    .ARM.Collect$$rtentry$$00000000          0x00000226   Section        0  __rtentry.o(.ARM.Collect$$rtentry$$00000000)
    .ARM.Collect$$rtentry$$00000002          0x00000226   Section        0  __rtentry2.o(.ARM.Collect$$rtentry$$00000002)
    .ARM.Collect$$rtentry$$00000004          0x00000226   Section        6  __rtentry4.o(.ARM.Collect$$rtentry$$00000004)
    .ARM.Collect$$rtentry$$00000009          0x0000022c   Section        0  __rtentry2.o(.ARM.Collect$$rtentry$$00000009)
    .ARM.Collect$$rtentry$$0000000A          0x0000022c   Section        4  __rtentry2.o(.ARM.Collect$$rtentry$$0000000A)
    .ARM.Collect$$rtentry$$0000000C          0x00000230   Section        0  __rtentry2.o(.ARM.Collect$$rtentry$$0000000C)
    .ARM.Collect$$rtentry$$0000000D          0x00000230   Section        8  __rtentry2.o(.ARM.Collect$$rtentry$$0000000D)
    .ARM.Collect$$rtexit$$00000000           0x00000238   Section        2  rtexit.o(.ARM.Collect$$rtexit$$00000000)
    .ARM.Collect$$rtexit$$00000002           0x0000023a   Section        0  rtexit2.o(.ARM.Collect$$rtexit$$00000002)
    .ARM.Collect$$rtexit$$00000003           0x0000023a   Section        4  rtexit2.o(.ARM.Collect$$rtexit$$00000003)
    .ARM.Collect$$rtexit$$00000004           0x0000023e   Section        6  rtexit2.o(.ARM.Collect$$rtexit$$00000004)
    .emb_text                                0x00000244   Section       56  rt_memcpy.o(.emb_text)
    .text                                    0x0000027c   Section       52  startup_lpc11xx.o(.text)
    .text                                    0x000002b0   Section        2  use_no_semi.o(.text)
    .text                                    0x000002b4   Section        0  c89vsnprintf.o(.text)
    .text                                    0x000002ec   Section        0  heapauxi.o(.text)
    .text                                    0x000002f2   Section        0  _sputc.o(.text)
    .ARM.__at_0x02FC                         0x000002fc   Section        4  startup_lpc11xx.o(.ARM.__at_0x02FC)
    .text                                    0x00000300   Section        0  system_lpc11xx.o(.text)
    .text                                    0x000003e4   Section        0  clkconfig.o(.text)
    .text                                    0x00000460   Section        0  gpio.o(.text)
    NVIC_EnableIRQ                           0x0000082b   Thumb Code    14  gpio.o(.text)
    .text                                    0x00000854   Section        0  uart.o(.text)
    .text                                    0x00000ac8   Section        0  retarget.o(.text)
    .text                                    0x00000b54   Section        0  timer32.o(.text)
    NVIC_EnableIRQ                           0x00000fef   Thumb Code    14  timer32.o(.text)
    .text                                    0x00001008   Section        0  ssp.o(.text)
    NVIC_EnableIRQ                           0x00001607   Thumb Code    14  ssp.o(.text)
    .text                                    0x00001620   Section        0  i2c.o(.text)
    .text                                    0x0000192c   Section        0  can.o(.text)
    .text                                    0x00001c94   Section        0  adc.o(.text)
    .text                                    0x00001e60   Section        0  wdt.o(.text)
    .text                                    0x00001f8c   Section        0  tools.o(.text)
    .text                                    0x00002020   Section        0  key.o(.text)
    .text                                    0x000020c8   Section        0  seg7led.o(.text)
    .text                                    0x00002158   Section        0  oled2864.o(.text)
    .text                                    0x00002a68   Section        0  temp_hum.o(.text)
    .text                                    0x00002c74   Section        0  light.o(.text)
    readCommandReg                           0x00002c75   Thumb Code    32  light.o(.text)
    readControlReg                           0x00002c95   Thumb Code    32  light.o(.text)
    .text                                    0x00002fd4   Section        0  acc.o(.text)
    getStatus                                0x00002fd5   Thumb Code    32  acc.o(.text)
    getModeControl                           0x00002ff5   Thumb Code    32  acc.o(.text)
    setModeControl                           0x00003015   Thumb Code    24  acc.o(.text)
    .text                                    0x00003234   Section        0  rfid.o(.text)
    .text                                    0x00003404   Section        0  spi_uart.o(.text)
    .text                                    0x000036dc   Section        0  main.o(.text)
    .text                                    0x00003c24   Section        0  menu.o(.text)
    .text                                    0x00003cec   Section        0  led_spk_fan.o(.text)
    .text                                    0x000040bc   Section        0  lpc11c14_it.o(.text)
    .text                                    0x00004238   Section        0  collect_data.o(.text)
    .text                                    0x00004544   Section        0  myrfid.o(.text)
    .text                                    0x000048c0   Section        0  file_operations.o(.text)
    .text                                    0x000049fc   Section        0  sys_init.o(.text)
    NVIC_SetPriority                         0x000049fd   Thumb Code   110  sys_init.o(.text)
    .text                                    0x00004c48   Section        0  __2printf.o(.text)
    .text                                    0x00004c64   Section        0  __2sprintf.o(.text)
    .text                                    0x00004c90   Section        0  __2snprintf.o(.text)
    .text                                    0x00004ccc   Section        0  _printf_pad.o(.text)
    .text                                    0x00004d1c   Section        0  _printf_dec.o(.text)
    .text                                    0x00004d88   Section        0  _printf_hex_int_ll_ptr.o(.text)
    _printf_hex_common                       0x00004d89   Thumb Code     0  _printf_hex_int_ll_ptr.o(.text)
    .text                                    0x00004e20   Section        0  __printf_flags_ss_wp.o(.text)
    .text                                    0x00004fa8   Section        0  strcpy.o(.text)
    .text                                    0x00004ff4   Section        0  rt_memcpy.o(.text)
    .text                                    0x00005076   Section        0  aeabi_memset.o(.text)
    .text                                    0x00005088   Section        0  rt_memclr.o(.text)
    .text                                    0x000050c8   Section      346  aeabi_sdiv.o(.text)
    .text                                    0x00005224   Section        0  d2f.o(.text)
    .text                                    0x000052a0   Section        0  ddiv.o(.text)
    .text                                    0x000056e8   Section        0  dflti.o(.text)
    .text                                    0x00005740   Section        0  dmul.o(.text)
    .text                                    0x00005988   Section        0  ffixui.o(.text)
    .text                                    0x000059b8   Section        0  _printf_truncate.o(.text)
    .text                                    0x000059dc   Section        0  _printf_str.o(.text)
    .text                                    0x00005a2e   Section        0  _printf_intcommon.o(.text)
    .text                                    0x00005ade   Section        0  _printf_charcount.o(.text)
    .text                                    0x00005b04   Section        0  _printf_char_common.o(.text)
    _printf_input_char                       0x00005b05   Thumb Code    10  _printf_char_common.o(.text)
    .text                                    0x00005b34   Section        0  _snputc.o(.text)
    .text                                    0x00005b44   Section        0  _printf_char_file.o(.text)
    .text                                    0x00005b6c   Section        0  _printf_wctomb.o(.text)
    .text                                    0x00005c28   Section        0  _printf_longlong_dec.o(.text)
    .text                                    0x00005c98   Section        0  _printf_oct_int_ll.o(.text)
    _printf_longlong_oct_internal            0x00005c99   Thumb Code     0  _printf_oct_int_ll.o(.text)
    .text                                    0x00005d08   Section        0  rtudiv10.o(.text)
    .text                                    0x00005d30   Section        0  lludiv10.o(.text)
    .text                                    0x00005dac   Section        0  _printf_fp_dec.o(.text)
    _fp_digits                               0x00005daf   Thumb Code   412  _printf_fp_dec.o(.text)
    .text                                    0x000061c4   Section        0  _printf_char.o(.text)
    .text                                    0x000061f2   Section        0  _printf_wchar.o(.text)
    .text                                    0x00006220   Section        0  _wcrtomb.o(.text)
    .text                                    0x00006260   Section       62  sys_stackheap_outer.o(.text)
    .text                                    0x000062a0   Section       16  rt_ctype_table.o(.text)
    .text                                    0x000062b0   Section        8  rt_locale_intlibspace.o(.text)
    .text                                    0x000062b8   Section        0  _printf_fp_infnan.o(.text)
    .text                                    0x00006340   Section        0  bigflt0.o(.text)
    .text                                    0x00006418   Section        0  btod.o(.text)
    btod_internal_mul                        0x00006459   Thumb Code   492  btod.o(.text)
    btod_internal_div                        0x00006645   Thumb Code   520  btod.o(.text)
    .text                                    0x00006998   Section        0  exit.o(.text)
    .text                                    0x000069a8   Section        8  libspace.o(.text)
    .text                                    0x000069b0   Section        0  strcmp.o(.text)
    .text                                    0x00006a38   Section        0  __dczerorl2.o(.text)
    i.__ARM_common_ll_muluu                  0x00006a8e   Section        0  btod.o(i.__ARM_common_ll_muluu)
    i.__ARM_common_switch8                   0x00006abe   Section        0  i2c.o(i.__ARM_common_switch8)
    i.__ARM_fpclassify                       0x00006adc   Section        0  fpclassify.o(i.__ARM_fpclassify)
    i._is_digit                              0x00006b08   Section        0  __printf_wp.o(i._is_digit)
    locale$$code                             0x00006b18   Section       44  lc_numeric_c.o(locale$$code)
    locale$$code                             0x00006b44   Section       44  lc_ctype_c.o(locale$$code)
    x$fpl$fmul                               0x00006b70   Section      176  fmul.o(x$fpl$fmul)
    x$fpl$printf1                            0x00006c20   Section       16  printf1.o(x$fpl$printf1)
    .constdata                               0x00006c30   Section       16  gpio.o(.constdata)
    x$fpl$usenofp                            0x00006c30   Section        0  usenofp.o(x$fpl$usenofp)
    LPC_GPIO                                 0x00006c30   Data          16  gpio.o(.constdata)
    .constdata                               0x00006c40   Section       48  seg7led.o(.constdata)
    LPC_GPIO                                 0x00006c40   Data          16  seg7led.o(.constdata)
    .constdata                               0x00006c70   Section     1948  oled2864.o(.constdata)
    LPC_GPIO                                 0x00006c70   Data          16  oled2864.o(.constdata)
    .constdata                               0x0000740c   Section       26  myrfid.o(.constdata)
    LPC_GPIO                                 0x0000740c   Data          16  myrfid.o(.constdata)
    .constdata                               0x00007426   Section       40  _printf_hex_int_ll_ptr.o(.constdata)
    uc_hextab                                0x00007426   Data          20  _printf_hex_int_ll_ptr.o(.constdata)
    lc_hextab                                0x0000743a   Data          20  _printf_hex_int_ll_ptr.o(.constdata)
    .constdata                               0x0000744e   Section       17  __printf_flags_ss_wp.o(.constdata)
    maptable                                 0x0000744e   Data          17  __printf_flags_ss_wp.o(.constdata)
    .constdata                               0x0000745f   Section      128  ddiv.o(.constdata)
    ddiv_reciptbl                            0x0000745f   Data         128  ddiv.o(.constdata)
    .constdata                               0x000074e0   Section        8  _printf_wctomb.o(.constdata)
    initial_mbstate                          0x000074e0   Data           8  _printf_wctomb.o(.constdata)
    .constdata                               0x000074e8   Section      148  bigflt0.o(.constdata)
    tenpwrs_x                                0x000074e8   Data          60  bigflt0.o(.constdata)
    tenpwrs_i                                0x00007524   Data          64  bigflt0.o(.constdata)
    locale$$data                             0x0000759c   Section       28  lc_numeric_c.o(locale$$data)
    __lcnum_c_name                           0x000075a0   Data           2  lc_numeric_c.o(locale$$data)
    __lcnum_c_start                          0x000075a8   Data           0  lc_numeric_c.o(locale$$data)
    __lcnum_c_point                          0x000075b4   Data           0  lc_numeric_c.o(locale$$data)
    __lcnum_c_thousands                      0x000075b6   Data           0  lc_numeric_c.o(locale$$data)
    __lcnum_c_grouping                       0x000075b7   Data           0  lc_numeric_c.o(locale$$data)
    locale$$data                             0x000075b8   Section      272  lc_ctype_c.o(locale$$data)
    __lcnum_c_end                            0x000075b8   Data           0  lc_numeric_c.o(locale$$data)
    __lcctype_c_name                         0x000075bc   Data           2  lc_ctype_c.o(locale$$data)
    __lcctype_c_start                        0x000075c4   Data           0  lc_ctype_c.o(locale$$data)
    __lcctype_c_end                          0x000076c8   Data           0  lc_ctype_c.o(locale$$data)
    .data                                    0x10000000   Section       12  system_lpc11xx.o(.data)
    .data                                    0x1000000c   Section       16  uart.o(.data)
    .data                                    0x1000001c   Section        8  retarget.o(.data)
    .data                                    0x10000024   Section       24  timer32.o(.data)
    .data                                    0x1000003c   Section       24  ssp.o(.data)
    .data                                    0x10000054   Section       41  i2c.o(.data)
    I2CMasterState                           0x10000054   Data           4  i2c.o(.data)
    I2CSlaveState                            0x10000058   Data           4  i2c.o(.data)
    I2CMode                                  0x1000005c   Data           4  i2c.o(.data)
    I2CCount                                 0x10000060   Data           4  i2c.o(.data)
    I2CMasterBuffer                          0x10000064   Data           4  i2c.o(.data)
    I2CSlaveBuffer                           0x10000068   Data           4  i2c.o(.data)
    I2CReadLength                            0x1000006c   Data           4  i2c.o(.data)
    I2CWriteLength                           0x10000070   Data           4  i2c.o(.data)
    RdIndex                                  0x10000074   Data           4  i2c.o(.data)
    WrIndex                                  0x10000078   Data           4  i2c.o(.data)
    I2CAddr                                  0x1000007c   Data           1  i2c.o(.data)
    .data                                    0x10000080   Section       12  can.o(.data)
    .data                                    0x1000008c   Section        4  wdt.o(.data)
    .data                                    0x10000090   Section        8  light.o(.data)
    range                                    0x10000090   Data           4  light.o(.data)
    width                                    0x10000094   Data           4  light.o(.data)
    .data                                    0x10000098   Section        9  spi_uart.o(.data)
    .data                                    0x100000a4   Section       84  main.o(.data)
    cnt                                      0x100000cc   Data           1  main.o(.data)
    Tick                                     0x100000f4   Data           4  main.o(.data)
    .data                                    0x100000f8   Section        8  led_spk_fan.o(.data)
    .data                                    0x10000100   Section       48  lpc11c14_it.o(.data)
    .data                                    0x10000130   Section       26  myrfid.o(.data)
    .bss                                     0x1000014c   Section      164  uart.o(.bss)
    .bss                                     0x100001f0   Section      896  can.o(.bss)
    .bss                                     0x10000570   Section       32  adc.o(.bss)
    .bss                                     0x10000590   Section      216  spi_uart.o(.bss)
    .bss                                     0x10000668   Section      342  main.o(.bss)
    .bss                                     0x100007be   Section       10  myrfid.o(.bss)
    .bss                                     0x100007c8   Section       60  file_operations.o(.bss)
    .bss                                     0x10000804   Section       96  libspace.o(.bss)
    HEAP                                     0x10000868   Section        0  startup_lpc11xx.o(HEAP)
    STACK                                    0x10000868   Section      512  startup_lpc11xx.o(STACK)
    Heap_Mem                                 0x10000868   Data           0  startup_lpc11xx.o(HEAP)
    Stack_Mem                                0x10000868   Data         512  startup_lpc11xx.o(STACK)
    __initial_sp                             0x10000a68   Data           0  startup_lpc11xx.o(STACK)

    Global Symbols

    Symbol Name                              Value     Ov Type        Size  Object(Section)

    BuildAttributes$$THM_ISAv3M$S$PE$A:L22$X:L11$S22$IEEE1$IW$USESV6$~STKCKD$USESV7$~SHL$OTIME$ROPI$IEEEJ$EBA8$UX$STANDARDLIB$REQ8$PRES8$EABIv2 0x00000000   Number         0  anon$$obj.o ABSOLUTE
    __ARM_use_no_argv                        0x00000000   Number         0  main.o ABSOLUTE
    __Vectors                                0x00000000   Data           4  startup_lpc11xx.o(RESET)
    _printf_flags                            0x00000000   Number         0  printf_stubs.o ABSOLUTE
    _printf_return_value                     0x00000000   Number         0  printf_stubs.o ABSOLUTE
    _printf_sizespec                         0x00000000   Number         0  printf_stubs.o ABSOLUTE
    _printf_widthprec                        0x00000000   Number         0  printf_stubs.o ABSOLUTE
    __ARM_exceptions_init                     - Undefined Weak Reference
    __alloca_initialize                       - Undefined Weak Reference
    __arm_preinit_                            - Undefined Weak Reference
    __cpp_initialize__aeabi_                  - Undefined Weak Reference
    __cxa_finalize                            - Undefined Weak Reference
    __sigvec_lookup                           - Undefined Weak Reference
    _atexit_init                              - Undefined Weak Reference
    _call_atexit_fns                          - Undefined Weak Reference
    _clock_init                               - Undefined Weak Reference
    _fp_trap_init                             - Undefined Weak Reference
    _fp_trap_shutdown                         - Undefined Weak Reference
    _get_lc_collate                           - Undefined Weak Reference
    _get_lc_monetary                          - Undefined Weak Reference
    _get_lc_time                              - Undefined Weak Reference
    _getenv_init                              - Undefined Weak Reference
    _handle_redirection                       - Undefined Weak Reference
    _init_alloc                               - Undefined Weak Reference
    _init_user_alloc                          - Undefined Weak Reference
    _initio                                   - Undefined Weak Reference
    _printf_fp_hex                            - Undefined Weak Reference
    _printf_mbtowc                            - Undefined Weak Reference
    _printf_wc                                - Undefined Weak Reference
    _rand_init                                - Undefined Weak Reference
    _signal_finish                            - Undefined Weak Reference
    _signal_init                              - Undefined Weak Reference
    _terminate_alloc                          - Undefined Weak Reference
    _terminate_user_alloc                     - Undefined Weak Reference
    _terminateio                              - Undefined Weak Reference
    __main                                   0x000000c1   Thumb Code     8  __main.o(!!!main)
    __scatterload                            0x000000c9   Thumb Code     0  __scatter.o(!!!scatter)
    __scatterload_rt2                        0x000000c9   Thumb Code    52  __scatter.o(!!!scatter)
    __scatterload_rt2_thumb_only             0x000000c9   Thumb Code     0  __scatter.o(!!!scatter)
    __scatterload_null                       0x000000d9   Thumb Code     0  __scatter.o(!!!scatter)
    __scatterload_zeroinit                   0x00000105   Thumb Code    28  __scatter_zi.o(!!handler_zi)
    _printf_percent                          0x00000121   Thumb Code     0  _printf_percent.o(.ARM.Collect$$_printf_percent$$00000000)
    _printf_n                                0x00000123   Thumb Code     0  _printf_n.o(.ARM.Collect$$_printf_percent$$00000001)
    _printf_p                                0x0000012d   Thumb Code     0  _printf_p.o(.ARM.Collect$$_printf_percent$$00000002)
    _printf_f                                0x00000137   Thumb Code     0  _printf_f.o(.ARM.Collect$$_printf_percent$$00000003)
    _printf_e                                0x00000141   Thumb Code     0  _printf_e.o(.ARM.Collect$$_printf_percent$$00000004)
    _printf_g                                0x0000014b   Thumb Code     0  _printf_g.o(.ARM.Collect$$_printf_percent$$00000005)
    _printf_a                                0x00000155   Thumb Code     0  _printf_a.o(.ARM.Collect$$_printf_percent$$00000006)
    _printf_ll                               0x0000015f   Thumb Code     0  _printf_ll.o(.ARM.Collect$$_printf_percent$$00000007)
    _printf_i                                0x00000169   Thumb Code     0  _printf_i.o(.ARM.Collect$$_printf_percent$$00000008)
    _printf_d                                0x00000173   Thumb Code     0  _printf_d.o(.ARM.Collect$$_printf_percent$$00000009)
    _printf_u                                0x0000017d   Thumb Code     0  _printf_u.o(.ARM.Collect$$_printf_percent$$0000000A)
    _printf_o                                0x00000187   Thumb Code     0  _printf_o.o(.ARM.Collect$$_printf_percent$$0000000B)
    _printf_x                                0x00000191   Thumb Code     0  _printf_x.o(.ARM.Collect$$_printf_percent$$0000000C)
    _printf_lli                              0x0000019b   Thumb Code     0  _printf_lli.o(.ARM.Collect$$_printf_percent$$0000000D)
    _printf_lld                              0x000001a5   Thumb Code     0  _printf_lld.o(.ARM.Collect$$_printf_percent$$0000000E)
    _printf_llu                              0x000001af   Thumb Code     0  _printf_llu.o(.ARM.Collect$$_printf_percent$$0000000F)
    _printf_llo                              0x000001b9   Thumb Code     0  _printf_llo.o(.ARM.Collect$$_printf_percent$$00000010)
    _printf_llx                              0x000001c3   Thumb Code     0  _printf_llx.o(.ARM.Collect$$_printf_percent$$00000011)
    _printf_l                                0x000001cd   Thumb Code     0  _printf_l.o(.ARM.Collect$$_printf_percent$$00000012)
    _printf_c                                0x000001d7   Thumb Code     0  _printf_c.o(.ARM.Collect$$_printf_percent$$00000013)
    _printf_s                                0x000001e1   Thumb Code     0  _printf_s.o(.ARM.Collect$$_printf_percent$$00000014)
    _printf_lc                               0x000001eb   Thumb Code     0  _printf_lc.o(.ARM.Collect$$_printf_percent$$00000015)
    _printf_ls                               0x000001f5   Thumb Code     0  _printf_ls.o(.ARM.Collect$$_printf_percent$$00000016)
    _printf_percent_end                      0x000001ff   Thumb Code     0  _printf_percent_end.o(.ARM.Collect$$_printf_percent$$00000017)
    __rt_lib_init                            0x00000203   Thumb Code     0  libinit.o(.ARM.Collect$$libinit$$00000000)
    __rt_lib_init_fp_1                       0x00000205   Thumb Code     0  libinit2.o(.ARM.Collect$$libinit$$00000002)
    __rt_lib_init_heap_1                     0x00000205   Thumb Code     0  libinit2.o(.ARM.Collect$$libinit$$0000000A)
    __rt_lib_init_lc_common                  0x00000205   Thumb Code     0  libinit2.o(.ARM.Collect$$libinit$$0000000F)
    __rt_lib_init_preinit_1                  0x00000205   Thumb Code     0  libinit2.o(.ARM.Collect$$libinit$$00000004)
    __rt_lib_init_rand_1                     0x00000205   Thumb Code     0  libinit2.o(.ARM.Collect$$libinit$$0000000E)
    __rt_lib_init_user_alloc_1               0x00000205   Thumb Code     0  libinit2.o(.ARM.Collect$$libinit$$0000000C)
    __rt_lib_init_lc_collate_1               0x0000020b   Thumb Code     0  libinit2.o(.ARM.Collect$$libinit$$00000011)
    __rt_lib_init_lc_ctype_2                 0x0000020b   Thumb Code     0  libinit2.o(.ARM.Collect$$libinit$$00000012)
    __rt_lib_init_lc_ctype_1                 0x00000217   Thumb Code     0  libinit2.o(.ARM.Collect$$libinit$$00000013)
    __rt_lib_init_lc_monetary_1              0x00000217   Thumb Code     0  libinit2.o(.ARM.Collect$$libinit$$00000015)
    __rt_lib_init_lc_numeric_2               0x00000217   Thumb Code     0  libinit2.o(.ARM.Collect$$libinit$$00000016)
    __rt_lib_init_alloca_1                   0x00000221   Thumb Code     0  libinit2.o(.ARM.Collect$$libinit$$0000002E)
    __rt_lib_init_argv_1                     0x00000221   Thumb Code     0  libinit2.o(.ARM.Collect$$libinit$$0000002C)
    __rt_lib_init_atexit_1                   0x00000221   Thumb Code     0  libinit2.o(.ARM.Collect$$libinit$$0000001B)
    __rt_lib_init_clock_1                    0x00000221   Thumb Code     0  libinit2.o(.ARM.Collect$$libinit$$00000021)
    __rt_lib_init_cpp_1                      0x00000221   Thumb Code     0  libinit2.o(.ARM.Collect$$libinit$$00000032)
    __rt_lib_init_exceptions_1               0x00000221   Thumb Code     0  libinit2.o(.ARM.Collect$$libinit$$00000030)
    __rt_lib_init_fp_trap_1                  0x00000221   Thumb Code     0  libinit2.o(.ARM.Collect$$libinit$$0000001F)
    __rt_lib_init_getenv_1                   0x00000221   Thumb Code     0  libinit2.o(.ARM.Collect$$libinit$$00000023)
    __rt_lib_init_lc_numeric_1               0x00000221   Thumb Code     0  libinit2.o(.ARM.Collect$$libinit$$00000017)
    __rt_lib_init_lc_time_1                  0x00000221   Thumb Code     0  libinit2.o(.ARM.Collect$$libinit$$00000019)
    __rt_lib_init_return                     0x00000221   Thumb Code     0  libinit2.o(.ARM.Collect$$libinit$$00000033)
    __rt_lib_init_signal_1                   0x00000221   Thumb Code     0  libinit2.o(.ARM.Collect$$libinit$$0000001D)
    __rt_lib_init_stdio_1                    0x00000221   Thumb Code     0  libinit2.o(.ARM.Collect$$libinit$$00000025)
    __rt_lib_shutdown                        0x00000223   Thumb Code     0  libshutdown.o(.ARM.Collect$$libshutdown$$00000000)
    __rt_lib_shutdown_cpp_1                  0x00000225   Thumb Code     0  libshutdown2.o(.ARM.Collect$$libshutdown$$00000002)
    __rt_lib_shutdown_fp_trap_1              0x00000225   Thumb Code     0  libshutdown2.o(.ARM.Collect$$libshutdown$$00000007)
    __rt_lib_shutdown_heap_1                 0x00000225   Thumb Code     0  libshutdown2.o(.ARM.Collect$$libshutdown$$0000000F)
    __rt_lib_shutdown_return                 0x00000225   Thumb Code     0  libshutdown2.o(.ARM.Collect$$libshutdown$$00000010)
    __rt_lib_shutdown_signal_1               0x00000225   Thumb Code     0  libshutdown2.o(.ARM.Collect$$libshutdown$$0000000A)
    __rt_lib_shutdown_stdio_1                0x00000225   Thumb Code     0  libshutdown2.o(.ARM.Collect$$libshutdown$$00000004)
    __rt_lib_shutdown_user_alloc_1           0x00000225   Thumb Code     0  libshutdown2.o(.ARM.Collect$$libshutdown$$0000000C)
    __rt_entry                               0x00000227   Thumb Code     0  __rtentry.o(.ARM.Collect$$rtentry$$00000000)
    __rt_entry_presh_1                       0x00000227   Thumb Code     0  __rtentry2.o(.ARM.Collect$$rtentry$$00000002)
    __rt_entry_sh                            0x00000227   Thumb Code     0  __rtentry4.o(.ARM.Collect$$rtentry$$00000004)
    __rt_entry_li                            0x0000022d   Thumb Code     0  __rtentry2.o(.ARM.Collect$$rtentry$$0000000A)
    __rt_entry_postsh_1                      0x0000022d   Thumb Code     0  __rtentry2.o(.ARM.Collect$$rtentry$$00000009)
    __rt_entry_main                          0x00000231   Thumb Code     0  __rtentry2.o(.ARM.Collect$$rtentry$$0000000D)
    __rt_entry_postli_1                      0x00000231   Thumb Code     0  __rtentry2.o(.ARM.Collect$$rtentry$$0000000C)
    __rt_exit                                0x00000239   Thumb Code     0  rtexit.o(.ARM.Collect$$rtexit$$00000000)
    __rt_exit_ls                             0x0000023b   Thumb Code     0  rtexit2.o(.ARM.Collect$$rtexit$$00000003)
    __rt_exit_prels_1                        0x0000023b   Thumb Code     0  rtexit2.o(.ARM.Collect$$rtexit$$00000002)
    __rt_exit_exit                           0x0000023f   Thumb Code     0  rtexit2.o(.ARM.Collect$$rtexit$$00000004)
    __aeabi_memcpy4                          0x00000245   Thumb Code    56  rt_memcpy.o(.emb_text)
    __aeabi_memcpy8                          0x00000245   Thumb Code     0  rt_memcpy.o(.emb_text)
    Reset_Handler                            0x0000027d   Thumb Code     4  startup_lpc11xx.o(.text)
    NMI_Handler                              0x00000281   Thumb Code     2  startup_lpc11xx.o(.text)
    HardFault_Handler                        0x00000283   Thumb Code     2  startup_lpc11xx.o(.text)
    MemManage_Handler                        0x00000285   Thumb Code     2  startup_lpc11xx.o(.text)
    BusFault_Handler                         0x00000287   Thumb Code     2  startup_lpc11xx.o(.text)
    UsageFault_Handler                       0x00000289   Thumb Code     2  startup_lpc11xx.o(.text)
    SVC_Handler                              0x0000028b   Thumb Code     2  startup_lpc11xx.o(.text)
    DebugMon_Handler                         0x0000028d   Thumb Code     2  startup_lpc11xx.o(.text)
    PendSV_Handler                           0x0000028f   Thumb Code     2  startup_lpc11xx.o(.text)
    ADC_IRQHandler                           0x00000293   Thumb Code     0  startup_lpc11xx.o(.text)
    BOD_IRQHandler                           0x00000293   Thumb Code     0  startup_lpc11xx.o(.text)
    FMC_IRQHandler                           0x00000293   Thumb Code     0  startup_lpc11xx.o(.text)
    TIMER16_0_IRQHandler                     0x00000293   Thumb Code     0  startup_lpc11xx.o(.text)
    TIMER16_1_IRQHandler                     0x00000293   Thumb Code     0  startup_lpc11xx.o(.text)
    USB_FIQHandler                           0x00000293   Thumb Code     0  startup_lpc11xx.o(.text)
    USB_IRQHandler                           0x00000293   Thumb Code     0  startup_lpc11xx.o(.text)
    WAKEUP_IRQHandler                        0x00000293   Thumb Code     0  startup_lpc11xx.o(.text)
    __user_initial_stackheap                 0x00000295   Thumb Code     0  startup_lpc11xx.o(.text)
    __I$use$semihosting                      0x000002b1   Thumb Code     0  use_no_semi.o(.text)
    __use_no_semihosting_swi                 0x000002b1   Thumb Code     2  use_no_semi.o(.text)
    __c89vsnprintf                           0x000002b5   Thumb Code    50  c89vsnprintf.o(.text)
    __use_two_region_memory                  0x000002ed   Thumb Code     2  heapauxi.o(.text)
    __rt_heap_escrow$2region                 0x000002ef   Thumb Code     2  heapauxi.o(.text)
    __rt_heap_expand$2region                 0x000002f1   Thumb Code     2  heapauxi.o(.text)
    _sputc                                   0x000002f3   Thumb Code    10  _sputc.o(.text)
    Main_PLL_Setup                           0x00000301   Thumb Code   142  system_lpc11xx.o(.text)
    SystemInit                               0x0000038f   Thumb Code    60  system_lpc11xx.o(.text)
    WDT_CLK_Setup                            0x000003e5   Thumb Code    66  clkconfig.o(.text)
    CLKOUT_Setup                             0x00000427   Thumb Code    48  clkconfig.o(.text)
    GPIOInit                                 0x00000461   Thumb Code    40  gpio.o(.text)
    GPIOSetInterrupt                         0x00000489   Thumb Code   446  gpio.o(.text)
    GPIOIntEnable                            0x00000647   Thumb Code    88  gpio.o(.text)
    GPIOIntDisable                           0x0000069f   Thumb Code    88  gpio.o(.text)
    GPIOIntStatus                            0x000006f7   Thumb Code   102  gpio.o(.text)
    GPIOIntClear                             0x0000075d   Thumb Code    88  gpio.o(.text)
    GPIOSetValue                             0x000007b5   Thumb Code    22  gpio.o(.text)
    GPIOGetValue                             0x000007cb   Thumb Code    18  gpio.o(.text)
    GPIOSetDir                               0x000007dd   Thumb Code    78  gpio.o(.text)
    UARTSend                                 0x00000855   Thumb Code    32  uart.o(.text)
    DEVICE_state                             0x00000875   Thumb Code    30  uart.o(.text)
    UART_IRQHandler                          0x00000893   Thumb Code   186  uart.o(.text)
    UARTInit                                 0x0000094d   Thumb Code   200  uart.o(.text)
    UART0_PutChar                            0x00000a15   Thumb Code    20  uart.o(.text)
    UART0_PutString                          0x00000a29   Thumb Code    22  uart.o(.text)
    UART0_printf                             0x00000a3f   Thumb Code    40  uart.o(.text)
    UART0_GetChar                            0x00000a67   Thumb Code    54  uart.o(.text)
    PutCh                                    0x00000ac9   Thumb Code    20  retarget.o(.text)
    fputc                                    0x00000add   Thumb Code    14  retarget.o(.text)
    GetCh                                    0x00000aeb   Thumb Code    34  retarget.o(.text)
    fgetc                                    0x00000b0d   Thumb Code    16  retarget.o(.text)
    _ttywrch                                 0x00000b1d   Thumb Code    12  retarget.o(.text)
    ferror                                   0x00000b29   Thumb Code     8  retarget.o(.text)
    _sys_exit                                0x00000b31   Thumb Code     4  retarget.o(.text)
    GetCh_NoIRQ                              0x00000b35   Thumb Code    20  retarget.o(.text)
    delay32Ms                                0x00000b55   Thumb Code   126  timer32.o(.text)
    TIMER32_0_IRQHandler                     0x00000bd3   Thumb Code    58  timer32.o(.text)
    TIMER32_1_IRQHandler                     0x00000c0d   Thumb Code    58  timer32.o(.text)
    enable_timer32                           0x00000c47   Thumb Code    20  timer32.o(.text)
    disable_timer32                          0x00000c5b   Thumb Code    20  timer32.o(.text)
    reset_timer32                            0x00000c6f   Thumb Code    34  timer32.o(.text)
    init_timer32                             0x00000c91   Thumb Code   226  timer32.o(.text)
    init_timer32_a1                          0x00000d73   Thumb Code    88  timer32.o(.text)
    init_timer32PWM                          0x00000dcb   Thumb Code   450  timer32.o(.text)
    setMatch_timer32PWM                      0x00000f8d   Thumb Code    98  timer32.o(.text)
    SSP0_IRQHandler                          0x00001009   Thumb Code    72  ssp.o(.text)
    SSP1_IRQHandler                          0x00001051   Thumb Code    72  ssp.o(.text)
    SSP_IOConfig                             0x00001099   Thumb Code   324  ssp.o(.text)
    SPI_IOConfig                             0x000011dd   Thumb Code   392  ssp.o(.text)
    SSP_Init                                 0x00001365   Thumb Code   102  ssp.o(.text)
    SPI_Init                                 0x000013cb   Thumb Code   170  ssp.o(.text)
    SSP_Send                                 0x00001475   Thumb Code   106  ssp.o(.text)
    SSP_Receive                              0x000014df   Thumb Code    76  ssp.o(.text)
    SPI_PutGet                               0x0000152b   Thumb Code   114  ssp.o(.text)
    SPI0_Send                                0x0000159d   Thumb Code   106  ssp.o(.text)
    I2C_IRQHandler                           0x00001621   Thumb Code   398  i2c.o(.text)
    I2CStart                                 0x000017af   Thumb Code    42  i2c.o(.text)
    I2CStop                                  0x000017d9   Thumb Code    30  i2c.o(.text)
    I2CInit                                  0x000017f7   Thumb Code   122  i2c.o(.text)
    I2CEngine                                0x00001871   Thumb Code    56  i2c.o(.text)
    I2CRead                                  0x000018a9   Thumb Code    44  i2c.o(.text)
    I2CWrite                                 0x000018d5   Thumb Code    40  i2c.o(.text)
    CAN_MessageProcess                       0x0000192d   Thumb Code   132  can.o(.text)
    CAN_IRQHandler                           0x000019b1   Thumb Code   130  can.o(.text)
    CAN_ConfigureMessages                    0x00001a33   Thumb Code   192  can.o(.text)
    CAN_Init                                 0x00001af3   Thumb Code   168  can.o(.text)
    CAN_Send                                 0x00001b9b   Thumb Code   184  can.o(.text)
    ADCInit_NXP                              0x00001c95   Thumb Code   150  adc.o(.text)
    ADCInit                                  0x00001d2b   Thumb Code   126  adc.o(.text)
    ADCRead                                  0x00001da9   Thumb Code   102  adc.o(.text)
    ADCBurstRead                             0x00001e0f   Thumb Code    52  adc.o(.text)
    WDT_IRQHandler                           0x00001e61   Thumb Code   108  wdt.o(.text)
    WDTInit                                  0x00001ecd   Thumb Code   148  wdt.o(.text)
    WDTFeed                                  0x00001f61   Thumb Code    12  wdt.o(.text)
    delay_ms                                 0x00001f8d   Thumb Code   140  tools.o(.text)
    KEY_Init                                 0x00002021   Thumb Code    64  key.o(.text)
    KEY_Read                                 0x00002061   Thumb Code   102  key.o(.text)
    Seg7Led_Init                             0x000020c9   Thumb Code    54  seg7led.o(.text)
    Seg7Led_Put                              0x000020ff   Thumb Code    86  seg7led.o(.text)
    uDelay                                   0x00002159   Thumb Code    14  oled2864.o(.text)
    Delay                                    0x00002167   Thumb Code    48  oled2864.o(.text)
    Write_Command                            0x00002197   Thumb Code    54  oled2864.o(.text)
    Write_Data                               0x000021cd   Thumb Code    54  oled2864.o(.text)
    Set_Start_Column                         0x00002203   Thumb Code    44  oled2864.o(.text)
    Set_Addressing_Mode                      0x0000222f   Thumb Code    18  oled2864.o(.text)
    Set_Column_Address                       0x00002241   Thumb Code    26  oled2864.o(.text)
    Set_Page_Address                         0x0000225b   Thumb Code    26  oled2864.o(.text)
    Set_Start_Line                           0x00002275   Thumb Code    16  oled2864.o(.text)
    Set_Contrast_Control                     0x00002285   Thumb Code    18  oled2864.o(.text)
    Set_Charge_Pump                          0x00002297   Thumb Code    22  oled2864.o(.text)
    Set_Segment_Remap                        0x000022ad   Thumb Code    16  oled2864.o(.text)
    Set_Entire_Display                       0x000022bd   Thumb Code    16  oled2864.o(.text)
    Set_Inverse_Display                      0x000022cd   Thumb Code    16  oled2864.o(.text)
    Set_Multiplex_Ratio                      0x000022dd   Thumb Code    18  oled2864.o(.text)
    Set_Display_On_Off                       0x000022ef   Thumb Code    16  oled2864.o(.text)
    Set_Start_Page                           0x000022ff   Thumb Code    16  oled2864.o(.text)
    Set_Common_Remap                         0x0000230f   Thumb Code    16  oled2864.o(.text)
    Set_Display_Offset                       0x0000231f   Thumb Code    18  oled2864.o(.text)
    Set_Display_Clock                        0x00002331   Thumb Code    18  oled2864.o(.text)
    Set_Precharge_Period                     0x00002343   Thumb Code    18  oled2864.o(.text)
    Set_Common_Config                        0x00002355   Thumb Code    22  oled2864.o(.text)
    Set_VCOMH                                0x0000236b   Thumb Code    18  oled2864.o(.text)
    Set_NOP                                  0x0000237d   Thumb Code    10  oled2864.o(.text)
    Fill_RAM                                 0x00002387   Thumb Code    48  oled2864.o(.text)
    OLED_ClearScreen                         0x000023b7   Thumb Code    10  oled2864.o(.text)
    Fill_Block                               0x000023c1   Thumb Code    68  oled2864.o(.text)
    Checkerboard                             0x00002405   Thumb Code    52  oled2864.o(.text)
    Frame                                    0x00002439   Thumb Code   108  oled2864.o(.text)
    Show_Font57                              0x000024a5   Thumb Code    84  oled2864.o(.text)
    Show_String                              0x000024f9   Thumb Code    60  oled2864.o(.text)
    Show_Pattern                             0x00002535   Thumb Code    78  oled2864.o(.text)
    OLED_DisChar                             0x00002583   Thumb Code   120  oled2864.o(.text)
    OLED_DisStrLine                          0x000025fb   Thumb Code    68  oled2864.o(.text)
    Vertical_Scroll                          0x0000263f   Thumb Code   124  oled2864.o(.text)
    Horizontal_Scroll                        0x000026bb   Thumb Code    58  oled2864.o(.text)
    Continuous_Scroll                        0x000026f5   Thumb Code    82  oled2864.o(.text)
    Deactivate_Scroll                        0x00002747   Thumb Code    10  oled2864.o(.text)
    Fade_In                                  0x00002751   Thumb Code    44  oled2864.o(.text)
    Fade_Out                                 0x0000277d   Thumb Code    46  oled2864.o(.text)
    Sleep                                    0x000027ab   Thumb Code    46  oled2864.o(.text)
    Test                                     0x000027d9   Thumb Code    34  oled2864.o(.text)
    OLED_Init_E                              0x000027fb   Thumb Code   106  oled2864.o(.text)
    OLED_Init_I                              0x00002865   Thumb Code   126  oled2864.o(.text)
    OLED_Test                                0x000028e3   Thumb Code   372  oled2864.o(.text)
    Read_Temp_Hum                            0x00002a69   Thumb Code   506  temp_hum.o(.text)
    light_init                               0x00002cb5   Thumb Code     2  light.o(.text)
    light_enable                             0x00002cb7   Thumb Code    38  light.o(.text)
    light_setRange                           0x00002cdd   Thumb Code    96  light.o(.text)
    light_read                               0x00002d3d   Thumb Code   108  light.o(.text)
    light_setMode                            0x00002da9   Thumb Code    44  light.o(.text)
    light_setWidth                           0x00002dd5   Thumb Code    98  light.o(.text)
    light_setHiThreshold                     0x00002e37   Thumb Code    50  light.o(.text)
    light_setLoThreshold                     0x00002e69   Thumb Code    50  light.o(.text)
    light_setIrqInCycles                     0x00002e9b   Thumb Code    44  light.o(.text)
    light_getIrqStatus                       0x00002ec7   Thumb Code    16  light.o(.text)
    light_clearIrqStatus                     0x00002ed7   Thumb Code    36  light.o(.text)
    light_shutdown                           0x00002efb   Thumb Code    58  light.o(.text)
    Light_Test                               0x00002f35   Thumb Code   108  light.o(.text)
    acc_init                                 0x0000302d   Thumb Code    10  acc.o(.text)
    acc_read                                 0x00003037   Thumb Code   120  acc.o(.text)
    acc_setRange                             0x000030af   Thumb Code    34  acc.o(.text)
    acc_setMode                              0x000030d1   Thumb Code    30  acc.o(.text)
    Axis3_Test                               0x000030ef   Thumb Code   238  acc.o(.text)
    RFID_CheckSum                            0x00003235   Thumb Code    50  rfid.o(.text)
    RFID_Operate                             0x00003267   Thumb Code   254  rfid.o(.text)
    RFID_Test                                0x00003365   Thumb Code   112  rfid.o(.text)
    SPI752_RegRead                           0x00003405   Thumb Code    58  spi_uart.o(.text)
    ZigBee_IRQ_Process                       0x0000343f   Thumb Code   128  spi_uart.o(.text)
    SPI752_RegWrite                          0x000034bf   Thumb Code    52  spi_uart.o(.text)
    SPI752_Init                              0x000034f3   Thumb Code   218  spi_uart.o(.text)
    SPI752_PutChar                           0x000035cd   Thumb Code    36  spi_uart.o(.text)
    RS485_PutChar                            0x000035f1   Thumb Code    14  spi_uart.o(.text)
    RS485_PutString                          0x000035ff   Thumb Code    24  spi_uart.o(.text)
    ZigBee_PutChar                           0x00003617   Thumb Code    14  spi_uart.o(.text)
    ZigBee_PutString                         0x00003625   Thumb Code    24  spi_uart.o(.text)
    SPI752_GetChar                           0x0000363d   Thumb Code   106  spi_uart.o(.text)
    RS485_GetChar                            0x000036a7   Thumb Code    14  spi_uart.o(.text)
    ZigBee_GetChar                           0x000036b5   Thumb Code    14  spi_uart.o(.text)
    SysTick_Handler                          0x000036dd   Thumb Code   106  main.o(.text)
    main                                     0x00003747   Thumb Code  1228  main.o(.text)
    Dis_Menu                                 0x00003c25   Thumb Code   200  menu.o(.text)
    speaker_op                               0x00003ced   Thumb Code    50  led_spk_fan.o(.text)
    LED_Test                                 0x00003d1f   Thumb Code   282  led_spk_fan.o(.text)
    Speaker_Test                             0x00003e39   Thumb Code   254  led_spk_fan.o(.text)
    Fan_Test                                 0x00003f37   Thumb Code   262  led_spk_fan.o(.text)
    PIOINT0_IRQHandler                       0x000040bd   Thumb Code    72  lpc11c14_it.o(.text)
    PIOINT1_IRQHandler                       0x00004105   Thumb Code   162  lpc11c14_it.o(.text)
    PIOINT2_IRQHandler                       0x000041a7   Thumb Code    38  lpc11c14_it.o(.text)
    PIOINT3_IRQHandler                       0x000041cd   Thumb Code    54  lpc11c14_it.o(.text)
    collect_data                             0x00004239   Thumb Code   138  collect_data.o(.text)
    send_data                                0x000042c3   Thumb Code    28  collect_data.o(.text)
    send_data_uart                           0x000042df   Thumb Code    28  collect_data.o(.text)
    adc_ret                                  0x000042fb   Thumb Code   186  collect_data.o(.text)
    acc_ret                                  0x000043b5   Thumb Code   168  collect_data.o(.text)
    get_state                                0x0000445d   Thumb Code   124  collect_data.o(.text)
    Rfid_Init                                0x00004545   Thumb Code    30  myrfid.o(.text)
    Rfid_Read                                0x00004563   Thumb Code   514  myrfid.o(.text)
    Rfid_Operation                           0x00004765   Thumb Code    22  myrfid.o(.text)
    initSpeaker                              0x0000477b   Thumb Code    28  myrfid.o(.text)
    Speaker_OnOff                            0x00004797   Thumb Code    40  myrfid.o(.text)
    Speaker_Error                            0x000047bf   Thumb Code    30  myrfid.o(.text)
    Rfid_Display                             0x000047dd   Thumb Code   122  myrfid.o(.text)
    Read_Rfidnum                             0x00004857   Thumb Code    42  myrfid.o(.text)
    fill_tem                                 0x000048c1   Thumb Code     6  file_operations.o(.text)
    fill_hum                                 0x000048c7   Thumb Code     6  file_operations.o(.text)
    fill_light                               0x000048cd   Thumb Code     4  file_operations.o(.text)
    fill_acc                                 0x000048d1   Thumb Code    16  file_operations.o(.text)
    fill_adc                                 0x000048e1   Thumb Code     6  file_operations.o(.text)
    fill_key                                 0x000048e7   Thumb Code     4  file_operations.o(.text)
    fill_state                               0x000048eb   Thumb Code    14  file_operations.o(.text)
    fill_rfid                                0x000048f9   Thumb Code    46  file_operations.o(.text)
    fill_env                                 0x00004927   Thumb Code    44  file_operations.o(.text)
    fill_data                                0x00004953   Thumb Code    74  file_operations.o(.text)
    fill_message                             0x0000499d   Thumb Code    32  file_operations.o(.text)
    send_message_uart                        0x000049bd   Thumb Code    24  file_operations.o(.text)
    send_message_zigbee                      0x000049d5   Thumb Code    24  file_operations.o(.text)
    init                                     0x00004a6b   Thumb Code   452  sys_init.o(.text)
    __2printf                                0x00004c49   Thumb Code    22  __2printf.o(.text)
    __2sprintf                               0x00004c65   Thumb Code    40  __2sprintf.o(.text)
    __2snprintf                              0x00004c91   Thumb Code    54  __2snprintf.o(.text)
    _printf_pre_padding                      0x00004ccd   Thumb Code    44  _printf_pad.o(.text)
    _printf_post_padding                     0x00004cf9   Thumb Code    34  _printf_pad.o(.text)
    _printf_int_dec                          0x00004d1d   Thumb Code    90  _printf_dec.o(.text)
    _printf_longlong_hex                     0x00004d89   Thumb Code    88  _printf_hex_int_ll_ptr.o(.text)
    _printf_int_hex                          0x00004de1   Thumb Code    28  _printf_hex_int_ll_ptr.o(.text)
    _printf_ll_hex                           0x00004dfd   Thumb Code    10  _printf_hex_int_ll_ptr.o(.text)
    _printf_hex_ptr                          0x00004e07   Thumb Code    22  _printf_hex_int_ll_ptr.o(.text)
    __printf                                 0x00004e21   Thumb Code   386  __printf_flags_ss_wp.o(.text)
    strcpy                                   0x00004fa9   Thumb Code    70  strcpy.o(.text)
    __aeabi_memcpy                           0x00004ff5   Thumb Code   130  rt_memcpy.o(.text)
    __rt_memcpy                              0x00004ff5   Thumb Code     0  rt_memcpy.o(.text)
    __aeabi_memset                           0x00005077   Thumb Code    18  aeabi_memset.o(.text)
    _memset_w                                0x00005089   Thumb Code    26  rt_memclr.o(.text)
    _memset                                  0x000050a3   Thumb Code    30  rt_memclr.o(.text)
    __aeabi_memclr                           0x000050c1   Thumb Code     4  rt_memclr.o(.text)
    __rt_memclr                              0x000050c1   Thumb Code     0  rt_memclr.o(.text)
    __aeabi_memclr4                          0x000050c5   Thumb Code     0  rt_memclr.o(.text)
    __aeabi_memclr8                          0x000050c5   Thumb Code     0  rt_memclr.o(.text)
    __rt_memclr_w                            0x000050c5   Thumb Code     4  rt_memclr.o(.text)
    __aeabi_uidiv                            0x000050c9   Thumb Code     0  aeabi_sdiv.o(.text)
    __aeabi_uidivmod                         0x000050c9   Thumb Code    20  aeabi_sdiv.o(.text)
    __aeabi_idiv                             0x000050dd   Thumb Code     0  aeabi_sdiv.o(.text)
    __aeabi_idivmod                          0x000050dd   Thumb Code   326  aeabi_sdiv.o(.text)
    __aeabi_d2f                              0x00005225   Thumb Code     0  d2f.o(.text)
    _d2f                                     0x00005225   Thumb Code   120  d2f.o(.text)
    __aeabi_ddiv                             0x000052a1   Thumb Code     0  ddiv.o(.text)
    _ddiv                                    0x000052a1   Thumb Code  1072  ddiv.o(.text)
    _drdiv                                   0x000056d1   Thumb Code    20  ddiv.o(.text)
    __aeabi_i2d_normalise                    0x000056e9   Thumb Code    66  dflti.o(.text)
    __aeabi_i2d                              0x0000572b   Thumb Code    16  dflti.o(.text)
    _dflt                                    0x0000572b   Thumb Code     0  dflti.o(.text)
    __aeabi_ui2d                             0x0000573b   Thumb Code     6  dflti.o(.text)
    _dfltu                                   0x0000573b   Thumb Code     0  dflti.o(.text)
    __aeabi_dmul                             0x00005741   Thumb Code     0  dmul.o(.text)
    _dmul                                    0x00005741   Thumb Code   558  dmul.o(.text)
    __aeabi_f2uiz                            0x00005989   Thumb Code     0  ffixui.o(.text)
    _ffixu                                   0x00005989   Thumb Code    48  ffixui.o(.text)
    _printf_truncate_signed                  0x000059b9   Thumb Code    18  _printf_truncate.o(.text)
    _printf_truncate_unsigned                0x000059cb   Thumb Code    18  _printf_truncate.o(.text)
    _printf_str                              0x000059dd   Thumb Code    82  _printf_str.o(.text)
    _printf_int_common                       0x00005a2f   Thumb Code   176  _printf_intcommon.o(.text)
    _printf_charcount                        0x00005adf   Thumb Code    38  _printf_charcount.o(.text)
    _printf_char_common                      0x00005b0f   Thumb Code    32  _printf_char_common.o(.text)
    _snputc                                  0x00005b35   Thumb Code    16  _snputc.o(.text)
    _printf_char_file                        0x00005b45   Thumb Code    34  _printf_char_file.o(.text)
    _printf_wctomb                           0x00005b6d   Thumb Code   182  _printf_wctomb.o(.text)
    _printf_longlong_dec                     0x00005c29   Thumb Code    94  _printf_longlong_dec.o(.text)
    _printf_longlong_oct                     0x00005c99   Thumb Code    68  _printf_oct_int_ll.o(.text)
    _printf_int_oct                          0x00005cdd   Thumb Code    24  _printf_oct_int_ll.o(.text)
    _printf_ll_oct                           0x00005cf5   Thumb Code    10  _printf_oct_int_ll.o(.text)
    __rt_udiv10                              0x00005d09   Thumb Code    40  rtudiv10.o(.text)
    _ll_udiv10                               0x00005d31   Thumb Code   122  lludiv10.o(.text)
    __lib_sel_fp_printf                      0x00005dad   Thumb Code     2  _printf_fp_dec.o(.text)
    _printf_fp_dec_real                      0x00005f4b   Thumb Code   620  _printf_fp_dec.o(.text)
    _printf_cs_common                        0x000061c5   Thumb Code    22  _printf_char.o(.text)
    _printf_char                             0x000061db   Thumb Code    16  _printf_char.o(.text)
    _printf_string                           0x000061eb   Thumb Code     8  _printf_char.o(.text)
    _printf_lcs_common                       0x000061f3   Thumb Code    22  _printf_wchar.o(.text)
    _printf_wchar                            0x00006209   Thumb Code    16  _printf_wchar.o(.text)
    _printf_wstring                          0x00006219   Thumb Code     8  _printf_wchar.o(.text)
    _wcrtomb                                 0x00006221   Thumb Code    64  _wcrtomb.o(.text)
    __user_setup_stackheap                   0x00006261   Thumb Code    62  sys_stackheap_outer.o(.text)
    __rt_ctype_table                         0x000062a1   Thumb Code    16  rt_ctype_table.o(.text)
    __rt_locale                              0x000062b1   Thumb Code     8  rt_locale_intlibspace.o(.text)
    _printf_fp_infnan                        0x000062b9   Thumb Code   120  _printf_fp_infnan.o(.text)
    _btod_etento                             0x00006341   Thumb Code   210  bigflt0.o(.text)
    _btod_d2e                                0x00006419   Thumb Code    64  btod.o(.text)
    _btod_emul                               0x0000684d   Thumb Code    28  btod.o(.text)
    _btod_emuld                              0x00006869   Thumb Code   144  btod.o(.text)
    _btod_ediv                               0x000068f9   Thumb Code    26  btod.o(.text)
    _btod_edivd                              0x00006913   Thumb Code   124  btod.o(.text)
    exit                                     0x00006999   Thumb Code    16  exit.o(.text)
    __user_libspace                          0x000069a9   Thumb Code     8  libspace.o(.text)
    __user_perproc_libspace                  0x000069a9   Thumb Code     0  libspace.o(.text)
    __user_perthread_libspace                0x000069a9   Thumb Code     0  libspace.o(.text)
    strcmp                                   0x000069b1   Thumb Code   132  strcmp.o(.text)
    __decompress                             0x00006a39   Thumb Code     0  __dczerorl2.o(.text)
    __decompress1                            0x00006a39   Thumb Code    86  __dczerorl2.o(.text)
    __ARM_common_ll_muluu                    0x00006a8f   Thumb Code    48  btod.o(i.__ARM_common_ll_muluu)
    __ARM_common_switch8                     0x00006abf   Thumb Code    28  i2c.o(i.__ARM_common_switch8)
    __ARM_fpclassify                         0x00006add   Thumb Code    40  fpclassify.o(i.__ARM_fpclassify)
    _is_digit                                0x00006b09   Thumb Code    14  __printf_wp.o(i._is_digit)
    _get_lc_numeric                          0x00006b19   Thumb Code    44  lc_numeric_c.o(locale$$code)
    _get_lc_ctype                            0x00006b45   Thumb Code    44  lc_ctype_c.o(locale$$code)
    __aeabi_fmul                             0x00006b71   Thumb Code     0  fmul.o(x$fpl$fmul)
    _fmul                                    0x00006b71   Thumb Code   172  fmul.o(x$fpl$fmul)
    _printf_fp_dec                           0x00006c21   Thumb Code    16  printf1.o(x$fpl$printf1)
    __I$use$fp                               0x00006c30   Number         0  usenofp.o(x$fpl$usenofp)
    segcode                                  0x00006c50   Data          32  seg7led.o(.constdata)
    UniV                                     0x00006c80   Data         192  oled2864.o(.constdata)
    Ascii_1                                  0x00006d40   Data        1205  oled2864.o(.constdata)
    Ascii_2                                  0x000071f5   Data         535  oled2864.o(.constdata)
    RFID_READ_DATA_BLOCK_21                  0x0000741c   Data          10  myrfid.o(.constdata)
    Region$$Table$$Base                      0x0000757c   Number         0  anon$$obj.o(Region$$Table)
    Region$$Table$$Limit                     0x0000759c   Number         0  anon$$obj.o(Region$$Table)
    __ctype                                  0x000075c5   Data           0  lc_ctype_c.o(locale$$data)
    ClockSource                              0x10000000   Data           4  system_lpc11xx.o(.data)
    SystemFrequency                          0x10000004   Data           4  system_lpc11xx.o(.data)
    SystemAHBFrequency                       0x10000008   Data           4  system_lpc11xx.o(.data)
    UARTStatus                               0x1000000c   Data           4  uart.o(.data)
    UARTTxEmpty                              0x10000010   Data           1  uart.o(.data)
    UARTCount                                0x10000014   Data           4  uart.o(.data)
    UART_op                                  0x10000018   Data           4  uart.o(.data)
    __stdout                                 0x1000001c   Data           4  retarget.o(.data)
    __stdin                                  0x10000020   Data           4  retarget.o(.data)
    timer32_0_counter                        0x10000024   Data           4  timer32.o(.data)
    timer32_1_counter                        0x10000028   Data           4  timer32.o(.data)
    timer32_0_capture                        0x1000002c   Data           4  timer32.o(.data)
    timer32_1_capture                        0x10000030   Data           4  timer32.o(.data)
    timer32_0_period                         0x10000034   Data           4  timer32.o(.data)
    timer32_1_period                         0x10000038   Data           4  timer32.o(.data)
    interruptRxStat0                         0x1000003c   Data           4  ssp.o(.data)
    interruptOverRunStat0                    0x10000040   Data           4  ssp.o(.data)
    interruptRxTimeoutStat0                  0x10000044   Data           4  ssp.o(.data)
    interruptRxStat1                         0x10000048   Data           4  ssp.o(.data)
    interruptOverRunStat1                    0x1000004c   Data           4  ssp.o(.data)
    interruptRxTimeoutStat1                  0x10000050   Data           4  ssp.o(.data)
    BOffCnt                                  0x10000080   Data           4  can.o(.data)
    EWarnCnt                                 0x10000084   Data           4  can.o(.data)
    EPassCnt                                 0x10000088   Data           4  can.o(.data)
    wdt_counter                              0x1000008c   Data           4  wdt.o(.data)
    SPI752_rbuf_0_ip                         0x10000098   Data           2  spi_uart.o(.data)
    SPI752_rbuf_0_op                         0x1000009a   Data           2  spi_uart.o(.data)
    SPI752_rbuf_1_ip                         0x1000009c   Data           2  spi_uart.o(.data)
    SPI752_rbuf_1_op                         0x1000009e   Data           2  spi_uart.o(.data)
    numb                                     0x100000a0   Data           1  spi_uart.o(.data)
    STORAGE_NUM                              0x100000a4   Data           1  main.o(.data)
    message_tag_s                            0x100000a5   Data           1  main.o(.data)
    tem_s                                    0x100000a6   Data           2  main.o(.data)
    hum_s                                    0x100000a8   Data           2  main.o(.data)
    light_s                                  0x100000ac   Data           4  main.o(.data)
    acc_s                                    0x100000b0   Data           3  main.o(.data)
    adc_s                                    0x100000b4   Data           8  main.o(.data)
    state_s                                  0x100000bc   Data           4  main.o(.data)
    command_s                                0x100000c0   Data           2  main.o(.data)
    key_s                                    0x100000c2   Data           1  main.o(.data)
    counter1                                 0x100000c4   Data           4  main.o(.data)
    counter2                                 0x100000c8   Data           4  main.o(.data)
    k                                        0x100000cd   Data           1  main.o(.data)
    j                                        0x100000ce   Data           1  main.o(.data)
    fun_on                                   0x100000d0   Data           4  main.o(.data)
    led_on                                   0x100000d4   Data           4  main.o(.data)
    speak_on                                 0x100000d8   Data           4  main.o(.data)
    p                                        0x100000dc   Data           4  main.o(.data)
    rfid_id                                  0x100000e0   Data           4  main.o(.data)
    Ch                                       0x100000e4   Data           1  main.o(.data)
    b                                        0x100000e5   Data           1  main.o(.data)
    temp_threshold                           0x100000e8   Data           4  main.o(.data)
    hum_threshold                            0x100000ec   Data           4  main.o(.data)
    light_threshold                          0x100000f0   Data           4  main.o(.data)
    period                                   0x100000f8   Data           4  led_spk_fan.o(.data)
    i                                        0x100000fc   Data           4  led_spk_fan.o(.data)
    gpio0_counter                            0x10000100   Data           4  lpc11c14_it.o(.data)
    p0_1_counter                             0x10000104   Data           4  lpc11c14_it.o(.data)
    gpio1_counter                            0x10000108   Data           4  lpc11c14_it.o(.data)
    p1_1_counter                             0x1000010c   Data           4  lpc11c14_it.o(.data)
    gpio2_counter                            0x10000110   Data           4  lpc11c14_it.o(.data)
    p2_8_counter                             0x10000114   Data           4  lpc11c14_it.o(.data)
    gpio3_counter                            0x10000118   Data           4  lpc11c14_it.o(.data)
    p3_1_counter                             0x1000011c   Data           4  lpc11c14_it.o(.data)
    p3_2_counter                             0x10000120   Data           4  lpc11c14_it.o(.data)
    p3_2_tc                                  0x10000124   Data           4  lpc11c14_it.o(.data)
    zigbee_flag                              0x10000128   Data           1  lpc11c14_it.o(.data)
    rfid_flag                                0x10000129   Data           1  lpc11c14_it.o(.data)
    up_flag                                  0x1000012a   Data           1  lpc11c14_it.o(.data)
    down_flag                                0x1000012b   Data           1  lpc11c14_it.o(.data)
    left_flag                                0x1000012c   Data           1  lpc11c14_it.o(.data)
    right_flag                               0x1000012d   Data           1  lpc11c14_it.o(.data)
    esc_flag                                 0x1000012e   Data           1  lpc11c14_it.o(.data)
    sel_flag                                 0x1000012f   Data           1  lpc11c14_it.o(.data)
    r_key                                    0x10000130   Data          10  myrfid.o(.data)
    wbuf                                     0x1000013a   Data          16  myrfid.o(.data)
    UARTBuffer                               0x1000014c   Data         128  uart.o(.bss)
    state_buf                                0x100001cc   Data          36  uart.o(.bss)
    CANRxDone                                0x100001f0   Data         128  can.o(.bss)
    can_buff                                 0x10000270   Data         768  can.o(.bss)
    ADCValue                                 0x10000570   Data          32  adc.o(.bss)
    SPI752_rbuf_0                            0x10000590   Data         108  spi_uart.o(.bss)
    SPI752_rbuf_1                            0x100005fc   Data         108  spi_uart.o(.bss)
    rfid_s                                   0x10000668   Data          28  main.o(.bss)
    env_msg_s                                0x10000684   Data          24  main.o(.bss)
    data_s                                   0x1000069c   Data          28  main.o(.bss)
    message_s                                0x100006b8   Data          36  main.o(.bss)
    message_r                                0x100006dc   Data          36  main.o(.bss)
    rx                                       0x10000700   Data          48  main.o(.bss)
    rbuf                                     0x10000730   Data          48  main.o(.bss)
    dis_buf                                  0x10000760   Data          30  main.o(.bss)
    send_buf                                 0x1000077e   Data          64  main.o(.bss)
    tbuf                                     0x100007be   Data          10  myrfid.o(.bss)
    buffer                                   0x100007c8   Data          60  file_operations.o(.bss)
    __libspace_start                         0x10000804   Data          96  libspace.o(.bss)
    __temporary_stack_top$libspace           0x10000864   Data           0  libspace.o(.bss)



==============================================================================

Memory Map of the image

  Image Entry point : 0x000000c1

  Load Region LR_IROM1 (Base: 0x00000000, Size: 0x00007814, Max: 0x00008000, ABSOLUTE, COMPRESSED[0x000076f8])

    Execution Region ER_IROM1 (Exec base: 0x00000000, Load base: 0x00000000, Size: 0x000076c8, Max: 0x00008000, ABSOLUTE)

    Exec Addr    Load Addr    Size         Type   Attr      Idx    E Section Name        Object

    0x00000000   0x00000000   0x000000c0   Data   RO            3    RESET               startup_lpc11xx.o
    0x000000c0   0x000000c0   0x00000008   Code   RO          695  * !!!main             c_p.l(__main.o)
    0x000000c8   0x000000c8   0x0000003c   Code   RO          966    !!!scatter          c_p.l(__scatter.o)
    0x00000104   0x00000104   0x0000001c   Code   RO          968    !!handler_zi        c_p.l(__scatter_zi.o)
    0x00000120   0x00000120   0x00000002   Code   RO          678    .ARM.Collect$$_printf_percent$$00000000  c_p.l(_printf_percent.o)
    0x00000122   0x00000122   0x0000000a   Code   RO          744    .ARM.Collect$$_printf_percent$$00000001  c_p.l(_printf_n.o)
    0x0000012c   0x0000012c   0x0000000a   Code   RO          745    .ARM.Collect$$_printf_percent$$00000002  c_p.l(_printf_p.o)
    0x00000136   0x00000136   0x0000000a   Code   RO          749    .ARM.Collect$$_printf_percent$$00000003  c_p.l(_printf_f.o)
    0x00000140   0x00000140   0x0000000a   Code   RO          750    .ARM.Collect$$_printf_percent$$00000004  c_p.l(_printf_e.o)
    0x0000014a   0x0000014a   0x0000000a   Code   RO          751    .ARM.Collect$$_printf_percent$$00000005  c_p.l(_printf_g.o)
    0x00000154   0x00000154   0x0000000a   Code   RO          752    .ARM.Collect$$_printf_percent$$00000006  c_p.l(_printf_a.o)
    0x0000015e   0x0000015e   0x0000000a   Code   RO          757    .ARM.Collect$$_printf_percent$$00000007  c_p.l(_printf_ll.o)
    0x00000168   0x00000168   0x0000000a   Code   RO          747    .ARM.Collect$$_printf_percent$$00000008  c_p.l(_printf_i.o)
    0x00000172   0x00000172   0x0000000a   Code   RO          677    .ARM.Collect$$_printf_percent$$00000009  c_p.l(_printf_d.o)
    0x0000017c   0x0000017c   0x0000000a   Code   RO          748    .ARM.Collect$$_printf_percent$$0000000A  c_p.l(_printf_u.o)
    0x00000186   0x00000186   0x0000000a   Code   RO          746    .ARM.Collect$$_printf_percent$$0000000B  c_p.l(_printf_o.o)
    0x00000190   0x00000190   0x0000000a   Code   RO          676    .ARM.Collect$$_printf_percent$$0000000C  c_p.l(_printf_x.o)
    0x0000019a   0x0000019a   0x0000000a   Code   RO          754    .ARM.Collect$$_printf_percent$$0000000D  c_p.l(_printf_lli.o)
    0x000001a4   0x000001a4   0x0000000a   Code   RO          755    .ARM.Collect$$_printf_percent$$0000000E  c_p.l(_printf_lld.o)
    0x000001ae   0x000001ae   0x0000000a   Code   RO          756    .ARM.Collect$$_printf_percent$$0000000F  c_p.l(_printf_llu.o)
    0x000001b8   0x000001b8   0x0000000a   Code   RO          761    .ARM.Collect$$_printf_percent$$00000010  c_p.l(_printf_llo.o)
    0x000001c2   0x000001c2   0x0000000a   Code   RO          762    .ARM.Collect$$_printf_percent$$00000011  c_p.l(_printf_llx.o)
    0x000001cc   0x000001cc   0x0000000a   Code   RO          758    .ARM.Collect$$_printf_percent$$00000012  c_p.l(_printf_l.o)
    0x000001d6   0x000001d6   0x0000000a   Code   RO          742    .ARM.Collect$$_printf_percent$$00000013  c_p.l(_printf_c.o)
    0x000001e0   0x000001e0   0x0000000a   Code   RO          743    .ARM.Collect$$_printf_percent$$00000014  c_p.l(_printf_s.o)
    0x000001ea   0x000001ea   0x0000000a   Code   RO          759    .ARM.Collect$$_printf_percent$$00000015  c_p.l(_printf_lc.o)
    0x000001f4   0x000001f4   0x0000000a   Code   RO          760    .ARM.Collect$$_printf_percent$$00000016  c_p.l(_printf_ls.o)
    0x000001fe   0x000001fe   0x00000004   Code   RO          753    .ARM.Collect$$_printf_percent$$00000017  c_p.l(_printf_percent_end.o)
    0x00000202   0x00000202   0x00000002   Code   RO          830    .ARM.Collect$$libinit$$00000000  c_p.l(libinit.o)
    0x00000204   0x00000204   0x00000000   Code   RO          853    .ARM.Collect$$libinit$$00000002  c_p.l(libinit2.o)
    0x00000204   0x00000204   0x00000000   Code   RO          855    .ARM.Collect$$libinit$$00000004  c_p.l(libinit2.o)
    0x00000204   0x00000204   0x00000000   Code   RO          858    .ARM.Collect$$libinit$$0000000A  c_p.l(libinit2.o)
    0x00000204   0x00000204   0x00000000   Code   RO          860    .ARM.Collect$$libinit$$0000000C  c_p.l(libinit2.o)
    0x00000204   0x00000204   0x00000000   Code   RO          862    .ARM.Collect$$libinit$$0000000E  c_p.l(libinit2.o)
    0x00000204   0x00000204   0x00000006   Code   RO          863    .ARM.Collect$$libinit$$0000000F  c_p.l(libinit2.o)
    0x0000020a   0x0000020a   0x00000000   Code   RO          865    .ARM.Collect$$libinit$$00000011  c_p.l(libinit2.o)
    0x0000020a   0x0000020a   0x0000000c   Code   RO          866    .ARM.Collect$$libinit$$00000012  c_p.l(libinit2.o)
    0x00000216   0x00000216   0x00000000   Code   RO          867    .ARM.Collect$$libinit$$00000013  c_p.l(libinit2.o)
    0x00000216   0x00000216   0x00000000   Code   RO          869    .ARM.Collect$$libinit$$00000015  c_p.l(libinit2.o)
    0x00000216   0x00000216   0x0000000a   Code   RO          870    .ARM.Collect$$libinit$$00000016  c_p.l(libinit2.o)
    0x00000220   0x00000220   0x00000000   Code   RO          871    .ARM.Collect$$libinit$$00000017  c_p.l(libinit2.o)
    0x00000220   0x00000220   0x00000000   Code   RO          873    .ARM.Collect$$libinit$$00000019  c_p.l(libinit2.o)
    0x00000220   0x00000220   0x00000000   Code   RO          875    .ARM.Collect$$libinit$$0000001B  c_p.l(libinit2.o)
    0x00000220   0x00000220   0x00000000   Code   RO          877    .ARM.Collect$$libinit$$0000001D  c_p.l(libinit2.o)
    0x00000220   0x00000220   0x00000000   Code   RO          879    .ARM.Collect$$libinit$$0000001F  c_p.l(libinit2.o)
    0x00000220   0x00000220   0x00000000   Code   RO          881    .ARM.Collect$$libinit$$00000021  c_p.l(libinit2.o)
    0x00000220   0x00000220   0x00000000   Code   RO          883    .ARM.Collect$$libinit$$00000023  c_p.l(libinit2.o)
    0x00000220   0x00000220   0x00000000   Code   RO          885    .ARM.Collect$$libinit$$00000025  c_p.l(libinit2.o)
    0x00000220   0x00000220   0x00000000   Code   RO          889    .ARM.Collect$$libinit$$0000002C  c_p.l(libinit2.o)
    0x00000220   0x00000220   0x00000000   Code   RO          891    .ARM.Collect$$libinit$$0000002E  c_p.l(libinit2.o)
    0x00000220   0x00000220   0x00000000   Code   RO          893    .ARM.Collect$$libinit$$00000030  c_p.l(libinit2.o)
    0x00000220   0x00000220   0x00000000   Code   RO          895    .ARM.Collect$$libinit$$00000032  c_p.l(libinit2.o)
    0x00000220   0x00000220   0x00000002   Code   RO          896    .ARM.Collect$$libinit$$00000033  c_p.l(libinit2.o)
    0x00000222   0x00000222   0x00000002   Code   RO          920    .ARM.Collect$$libshutdown$$00000000  c_p.l(libshutdown.o)
    0x00000224   0x00000224   0x00000000   Code   RO          946    .ARM.Collect$$libshutdown$$00000002  c_p.l(libshutdown2.o)
    0x00000224   0x00000224   0x00000000   Code   RO          948    .ARM.Collect$$libshutdown$$00000004  c_p.l(libshutdown2.o)
    0x00000224   0x00000224   0x00000000   Code   RO          951    .ARM.Collect$$libshutdown$$00000007  c_p.l(libshutdown2.o)
    0x00000224   0x00000224   0x00000000   Code   RO          954    .ARM.Collect$$libshutdown$$0000000A  c_p.l(libshutdown2.o)
    0x00000224   0x00000224   0x00000000   Code   RO          956    .ARM.Collect$$libshutdown$$0000000C  c_p.l(libshutdown2.o)
    0x00000224   0x00000224   0x00000000   Code   RO          959    .ARM.Collect$$libshutdown$$0000000F  c_p.l(libshutdown2.o)
    0x00000224   0x00000224   0x00000002   Code   RO          960    .ARM.Collect$$libshutdown$$00000010  c_p.l(libshutdown2.o)
    0x00000226   0x00000226   0x00000000   Code   RO          710    .ARM.Collect$$rtentry$$00000000  c_p.l(__rtentry.o)
    0x00000226   0x00000226   0x00000000   Code   RO          769    .ARM.Collect$$rtentry$$00000002  c_p.l(__rtentry2.o)
    0x00000226   0x00000226   0x00000006   Code   RO          781    .ARM.Collect$$rtentry$$00000004  c_p.l(__rtentry4.o)
    0x0000022c   0x0000022c   0x00000000   Code   RO          771    .ARM.Collect$$rtentry$$00000009  c_p.l(__rtentry2.o)
    0x0000022c   0x0000022c   0x00000004   Code   RO          772    .ARM.Collect$$rtentry$$0000000A  c_p.l(__rtentry2.o)
    0x00000230   0x00000230   0x00000000   Code   RO          774    .ARM.Collect$$rtentry$$0000000C  c_p.l(__rtentry2.o)
    0x00000230   0x00000230   0x00000008   Code   RO          775    .ARM.Collect$$rtentry$$0000000D  c_p.l(__rtentry2.o)
    0x00000238   0x00000238   0x00000002   Code   RO          839    .ARM.Collect$$rtexit$$00000000  c_p.l(rtexit.o)
    0x0000023a   0x0000023a   0x00000000   Code   RO          898    .ARM.Collect$$rtexit$$00000002  c_p.l(rtexit2.o)
    0x0000023a   0x0000023a   0x00000004   Code   RO          899    .ARM.Collect$$rtexit$$00000003  c_p.l(rtexit2.o)
    0x0000023e   0x0000023e   0x00000006   Code   RO          900    .ARM.Collect$$rtexit$$00000004  c_p.l(rtexit2.o)
    0x00000244   0x00000244   0x00000038   Code   RO          681    .emb_text           c_p.l(rt_memcpy.o)
    0x0000027c   0x0000027c   0x00000034   Code   RO            5    .text               startup_lpc11xx.o
    0x000002b0   0x000002b0   0x00000002   Code   RO          613    .text               c_p.l(use_no_semi.o)
    0x000002b2   0x000002b2   0x00000002   PAD
    0x000002b4   0x000002b4   0x00000038   Code   RO          615    .text               c_p.l(c89vsnprintf.o)
    0x000002ec   0x000002ec   0x00000006   Code   RO          693    .text               c_p.l(heapauxi.o)
    0x000002f2   0x000002f2   0x0000000a   Code   RO          725    .text               c_p.l(_sputc.o)
    0x000002fc   0x000002fc   0x00000004   Code   RO            4    .ARM.__at_0x02FC    startup_lpc11xx.o
    0x00000300   0x00000300   0x000000e4   Code   RO           27    .text               system_lpc11xx.o
    0x000003e4   0x000003e4   0x0000007c   Code   RO           51    .text               clkconfig.o
    0x00000460   0x00000460   0x000003f4   Code   RO           70    .text               gpio.o
    0x00000854   0x00000854   0x00000274   Code   RO           90    .text               uart.o
    0x00000ac8   0x00000ac8   0x0000008c   Code   RO          122    .text               retarget.o
    0x00000b54   0x00000b54   0x000004b4   Code   RO          148    .text               timer32.o
    0x00001008   0x00001008   0x00000618   Code   RO          166    .text               ssp.o
    0x00001620   0x00001620   0x0000030c   Code   RO          186    .text               i2c.o
    0x0000192c   0x0000192c   0x00000368   Code   RO          214    .text               can.o
    0x00001c94   0x00001c94   0x000001cc   Code   RO          234    .text               adc.o
    0x00001e60   0x00001e60   0x0000012c   Code   RO          253    .text               wdt.o
    0x00001f8c   0x00001f8c   0x00000094   Code   RO          271    .text               tools.o
    0x00002020   0x00002020   0x000000a6   Code   RO          295    .text               key.o
    0x000020c6   0x000020c6   0x00000002   PAD
    0x000020c8   0x000020c8   0x00000090   Code   RO          312    .text               seg7led.o
    0x00002158   0x00002158   0x00000910   Code   RO          330    .text               oled2864.o
    0x00002a68   0x00002a68   0x0000020c   Code   RO          345    .text               temp_hum.o
    0x00002c74   0x00002c74   0x00000360   Code   RO          372    .text               light.o
    0x00002fd4   0x00002fd4   0x00000260   Code   RO          389    .text               acc.o
    0x00003234   0x00003234   0x000001d0   Code   RO          404    .text               rfid.o
    0x00003404   0x00003404   0x000002d8   Code   RO          425    .text               spi_uart.o
    0x000036dc   0x000036dc   0x00000548   Code   RO          445    .text               main.o
    0x00003c24   0x00003c24   0x000000c8   Code   RO          484    .text               menu.o
    0x00003cec   0x00003cec   0x000003d0   Code   RO          510    .text               led_spk_fan.o
    0x000040bc   0x000040bc   0x0000017c   Code   RO          527    .text               lpc11c14_it.o
    0x00004238   0x00004238   0x0000030c   Code   RO          543    .text               collect_data.o
    0x00004544   0x00004544   0x0000037c   Code   RO          558    .text               myrfid.o
    0x000048c0   0x000048c0   0x0000013c   Code   RO          578    .text               file_operations.o
    0x000049fc   0x000049fc   0x0000024c   Code   RO          594    .text               sys_init.o
    0x00004c48   0x00004c48   0x0000001c   Code   RO          617    .text               c_p.l(__2printf.o)
    0x00004c64   0x00004c64   0x0000002c   Code   RO          619    .text               c_p.l(__2sprintf.o)
    0x00004c90   0x00004c90   0x0000003c   Code   RO          621    .text               c_p.l(__2snprintf.o)
    0x00004ccc   0x00004ccc   0x0000004e   Code   RO          631    .text               c_p.l(_printf_pad.o)
    0x00004d1a   0x00004d1a   0x00000002   PAD
    0x00004d1c   0x00004d1c   0x0000006c   Code   RO          633    .text               c_p.l(_printf_dec.o)
    0x00004d88   0x00004d88   0x00000098   Code   RO          653    .text               c_p.l(_printf_hex_int_ll_ptr.o)
    0x00004e20   0x00004e20   0x00000188   Code   RO          673    .text               c_p.l(__printf_flags_ss_wp.o)
    0x00004fa8   0x00004fa8   0x0000004c   Code   RO          679    .text               c_p.l(strcpy.o)
    0x00004ff4   0x00004ff4   0x00000082   Code   RO          682    .text               c_p.l(rt_memcpy.o)
    0x00005076   0x00005076   0x00000012   Code   RO          685    .text               c_p.l(aeabi_memset.o)
    0x00005088   0x00005088   0x00000040   Code   RO          687    .text               c_p.l(rt_memclr.o)
    0x000050c8   0x000050c8   0x0000015a   Code   RO          689    .text               c_p.l(aeabi_sdiv.o)
    0x00005222   0x00005222   0x00000002   PAD
    0x00005224   0x00005224   0x0000007c   Code   RO          697    .text               fz_ps.l(d2f.o)
    0x000052a0   0x000052a0   0x00000448   Code   RO          699    .text               fz_ps.l(ddiv.o)
    0x000056e8   0x000056e8   0x00000058   Code   RO          702    .text               fz_ps.l(dflti.o)
    0x00005740   0x00005740   0x00000248   Code   RO          704    .text               fz_ps.l(dmul.o)
    0x00005988   0x00005988   0x00000030   Code   RO          706    .text               fz_ps.l(ffixui.o)
    0x000059b8   0x000059b8   0x00000024   Code   RO          715    .text               c_p.l(_printf_truncate.o)
    0x000059dc   0x000059dc   0x00000052   Code   RO          717    .text               c_p.l(_printf_str.o)
    0x00005a2e   0x00005a2e   0x000000b0   Code   RO          719    .text               c_p.l(_printf_intcommon.o)
    0x00005ade   0x00005ade   0x00000026   Code   RO          721    .text               c_p.l(_printf_charcount.o)
    0x00005b04   0x00005b04   0x00000030   Code   RO          723    .text               c_p.l(_printf_char_common.o)
    0x00005b34   0x00005b34   0x00000010   Code   RO          727    .text               c_p.l(_snputc.o)
    0x00005b44   0x00005b44   0x00000028   Code   RO          729    .text               c_p.l(_printf_char_file.o)
    0x00005b6c   0x00005b6c   0x000000bc   Code   RO          731    .text               c_p.l(_printf_wctomb.o)
    0x00005c28   0x00005c28   0x00000070   Code   RO          734    .text               c_p.l(_printf_longlong_dec.o)
    0x00005c98   0x00005c98   0x00000070   Code   RO          740    .text               c_p.l(_printf_oct_int_ll.o)
    0x00005d08   0x00005d08   0x00000028   Code   RO          763    .text               c_p.l(rtudiv10.o)
    0x00005d30   0x00005d30   0x0000007a   Code   RO          785    .text               c_p.l(lludiv10.o)
    0x00005daa   0x00005daa   0x00000002   PAD
    0x00005dac   0x00005dac   0x00000418   Code   RO          787    .text               c_p.l(_printf_fp_dec.o)
    0x000061c4   0x000061c4   0x0000002e   Code   RO          791    .text               c_p.l(_printf_char.o)
    0x000061f2   0x000061f2   0x0000002e   Code   RO          793    .text               c_p.l(_printf_wchar.o)
    0x00006220   0x00006220   0x00000040   Code   RO          795    .text               c_p.l(_wcrtomb.o)
    0x00006260   0x00006260   0x0000003e   Code   RO          797    .text               c_p.l(sys_stackheap_outer.o)
    0x0000629e   0x0000629e   0x00000002   PAD
    0x000062a0   0x000062a0   0x00000010   Code   RO          800    .text               c_p.l(rt_ctype_table.o)
    0x000062b0   0x000062b0   0x00000008   Code   RO          805    .text               c_p.l(rt_locale_intlibspace.o)
    0x000062b8   0x000062b8   0x00000088   Code   RO          807    .text               c_p.l(_printf_fp_infnan.o)
    0x00006340   0x00006340   0x000000d8   Code   RO          809    .text               c_p.l(bigflt0.o)
    0x00006418   0x00006418   0x00000580   Code   RO          812    .text               c_p.l(btod.o)
    0x00006998   0x00006998   0x00000010   Code   RO          819    .text               c_p.l(exit.o)
    0x000069a8   0x000069a8   0x00000008   Code   RO          835    .text               c_p.l(libspace.o)
    0x000069b0   0x000069b0   0x00000088   Code   RO          850    .text               c_p.l(strcmp.o)
    0x00006a38   0x00006a38   0x00000056   Code   RO          964    .text               c_p.l(__dczerorl2.o)
    0x00006a8e   0x00006a8e   0x00000030   Code   RO          814    i.__ARM_common_ll_muluu  c_p.l(btod.o)
    0x00006abe   0x00006abe   0x0000001c   Code   RO          197    i.__ARM_common_switch8  i2c.o
    0x00006ada   0x00006ada   0x00000002   PAD
    0x00006adc   0x00006adc   0x0000002c   Code   RO          833    i.__ARM_fpclassify  m_ps.l(fpclassify.o)
    0x00006b08   0x00006b08   0x0000000e   Code   RO          666    i._is_digit         c_p.l(__printf_wp.o)
    0x00006b16   0x00006b16   0x00000002   PAD
    0x00006b18   0x00006b18   0x0000002c   Code   RO          817    locale$$code        c_p.l(lc_numeric_c.o)
    0x00006b44   0x00006b44   0x0000002c   Code   RO          844    locale$$code        c_p.l(lc_ctype_c.o)
    0x00006b70   0x00006b70   0x000000b0   Code   RO          708    x$fpl$fmul          fz_ps.l(fmul.o)
    0x00006c20   0x00006c20   0x00000010   Code   RO          765    x$fpl$printf1       fz_ps.l(printf1.o)
    0x00006c30   0x00006c30   0x00000000   Code   RO          767    x$fpl$usenofp       fz_ps.l(usenofp.o)
    0x00006c30   0x00006c30   0x00000010   Data   RO           71    .constdata          gpio.o
    0x00006c40   0x00006c40   0x00000030   Data   RO          313    .constdata          seg7led.o
    0x00006c70   0x00006c70   0x0000079c   Data   RO          331    .constdata          oled2864.o
    0x0000740c   0x0000740c   0x0000001a   Data   RO          560    .constdata          myrfid.o
    0x00007426   0x00007426   0x00000028   Data   RO          654    .constdata          c_p.l(_printf_hex_int_ll_ptr.o)
    0x0000744e   0x0000744e   0x00000011   Data   RO          674    .constdata          c_p.l(__printf_flags_ss_wp.o)
    0x0000745f   0x0000745f   0x00000080   Data   RO          700    .constdata          fz_ps.l(ddiv.o)
    0x000074df   0x000074df   0x00000001   PAD
    0x000074e0   0x000074e0   0x00000008   Data   RO          732    .constdata          c_p.l(_printf_wctomb.o)
    0x000074e8   0x000074e8   0x00000094   Data   RO          810    .constdata          c_p.l(bigflt0.o)
    0x0000757c   0x0000757c   0x00000020   Data   RO          962    Region$$Table       anon$$obj.o
    0x0000759c   0x0000759c   0x0000001c   Data   RO          816    locale$$data        c_p.l(lc_numeric_c.o)
    0x000075b8   0x000075b8   0x00000110   Data   RO          843    locale$$data        c_p.l(lc_ctype_c.o)


    Execution Region RW_IRAM1 (Exec base: 0x10000000, Load base: 0x000076c8, Size: 0x00000a68, Max: 0x00002000, ABSOLUTE, COMPRESSED[0x00000030])

    Exec Addr    Load Addr    Size         Type   Attr      Idx    E Section Name        Object

    0x10000000   COMPRESSED   0x0000000c   Data   RW           28    .data               system_lpc11xx.o
    0x1000000c   COMPRESSED   0x00000010   Data   RW           92    .data               uart.o
    0x1000001c   COMPRESSED   0x00000008   Data   RW          123    .data               retarget.o
    0x10000024   COMPRESSED   0x00000018   Data   RW          149    .data               timer32.o
    0x1000003c   COMPRESSED   0x00000018   Data   RW          169    .data               ssp.o
    0x10000054   COMPRESSED   0x00000029   Data   RW          187    .data               i2c.o
    0x1000007d   COMPRESSED   0x00000003   PAD
    0x10000080   COMPRESSED   0x0000000c   Data   RW          217    .data               can.o
    0x1000008c   COMPRESSED   0x00000004   Data   RW          254    .data               wdt.o
    0x10000090   COMPRESSED   0x00000008   Data   RW          373    .data               light.o
    0x10000098   COMPRESSED   0x00000009   Data   RW          428    .data               spi_uart.o
    0x100000a1   COMPRESSED   0x00000003   PAD
    0x100000a4   COMPRESSED   0x00000054   Data   RW          448    .data               main.o
    0x100000f8   COMPRESSED   0x00000008   Data   RW          512    .data               led_spk_fan.o
    0x10000100   COMPRESSED   0x00000030   Data   RW          529    .data               lpc11c14_it.o
    0x10000130   COMPRESSED   0x0000001a   Data   RW          561    .data               myrfid.o
    0x1000014a   COMPRESSED   0x00000002   PAD
    0x1000014c        -       0x000000a4   Zero   RW           91    .bss                uart.o
    0x100001f0        -       0x00000380   Zero   RW          215    .bss                can.o
    0x10000570        -       0x00000020   Zero   RW          235    .bss                adc.o
    0x10000590        -       0x000000d8   Zero   RW          426    .bss                spi_uart.o
    0x10000668        -       0x00000156   Zero   RW          446    .bss                main.o
    0x100007be        -       0x0000000a   Zero   RW          559    .bss                myrfid.o
    0x100007c8        -       0x0000003c   Zero   RW          579    .bss                file_operations.o
    0x10000804        -       0x00000060   Zero   RW          836    .bss                c_p.l(libspace.o)
    0x10000864   COMPRESSED   0x00000004   PAD
    0x10000868        -       0x00000000   Zero   RW            2    HEAP                startup_lpc11xx.o
    0x10000868        -       0x00000200   Zero   RW            1    STACK               startup_lpc11xx.o


==============================================================================

Image component sizes


      Code (inc. data)   RO Data    RW Data    ZI Data      Debug   Object Name

       608         88          0          0          0       3656   acc.o
       460         30          0          0         32       1896   adc.o
       872         66          0         12        896       4515   can.o
       124         10          0          0          0        645   clkconfig.o
       780        108          0          0          0       2752   collect_data.o
         0          0          0          0          0       4508   core_cm0.o
       316         16          0          0         60       4534   file_operations.o
      1012         28         16          0          0      10961   gpio.o
       808         62          0         41          0      17957   i2c.o
       166          0          0          0          0        664   key.o
       976        128          0          8          0       2359   led_spk_fan.o
       864         52          0          8          0       4310   light.o
       380         54          0         48          0       2288   lpc11c14_it.o
      1352        254          0         84        342       3813   main.o
       200          0          0          0          0        607   menu.o
       892         72         26         26         10       3773   myrfid.o
      2320         26       1948          0          0      11632   oled2864.o
       140         12          0          8          0       3565   retarget.o
       464         48          0          0          0       2507   rfid.o
       144          4         48          0          0       1269   seg7led.o
       728         26          0          9        216       4116   spi_uart.o
      1560         58          0         24          0       4503   ssp.o
        56         22        192          0        512       1044   startup_lpc11xx.o
       588         26          0          0          0       8591   sys_init.o
       228         26          0         12          0       8361   system_lpc11xx.o
       524         18          0          0          0       4271   temp_hum.o
      1204         56          0         24          0       3896   timer32.o
       148          8          0          0          0       1143   tools.o
       628         44          0         16        164      11518   uart.o
       300         32          0          4          0       1479   wdt.o

    ----------------------------------------------------------------------
     18846       1374       2262        332       2232     137133   Object Totals
         0          0         32          0          0          0   (incl. Generated)
         4          0          0          8          0          0   (incl. Padding)

    ----------------------------------------------------------------------

      Code (inc. data)   RO Data    RW Data    ZI Data      Debug   Library Member Name

        28          6          0          0          0         84   __2printf.o
        60          6          0          0          0         92   __2snprintf.o
        44          4          0          0          0         84   __2sprintf.o
        86          0          0          0          0          0   __dczerorl2.o
         8          0          0          0          0         68   __main.o
       392          6         17          0          0         76   __printf_flags_ss_wp.o
        14          0          0          0          0         60   __printf_wp.o
         0          0          0          0          0          0   __rtentry.o
        12          0          0          0          0          0   __rtentry2.o
         6          0          0          0          0          0   __rtentry4.o
        60          8          0          0          0          0   __scatter.o
        28          0          0          0          0          0   __scatter_zi.o
        10          0          0          0          0          0   _printf_a.o
        10          0          0          0          0          0   _printf_c.o
        46          0          0          0          0        100   _printf_char.o
        48          6          0          0          0         88   _printf_char_common.o
        40          6          0          0          0         72   _printf_char_file.o
        38          0          0          0          0         60   _printf_charcount.o
        10          0          0          0          0          0   _printf_d.o
       108         18          0          0          0         76   _printf_dec.o
        10          0          0          0          0          0   _printf_e.o
        10          0          0          0          0          0   _printf_f.o
      1048         14          0          0          0        176   _printf_fp_dec.o
       136         16          0          0          0         76   _printf_fp_infnan.o
        10          0          0          0          0          0   _printf_g.o
       152          4         40          0          0        148   _printf_hex_int_ll_ptr.o
        10          0          0          0          0          0   _printf_i.o
       176          0          0          0          0         84   _printf_intcommon.o
        10          0          0          0          0          0   _printf_l.o
        10          0          0          0          0          0   _printf_lc.o
        10          0          0          0          0          0   _printf_ll.o
        10          0          0          0          0          0   _printf_lld.o
        10          0          0          0          0          0   _printf_lli.o
        10          0          0          0          0          0   _printf_llo.o
        10          0          0          0          0          0   _printf_llu.o
        10          0          0          0          0          0   _printf_llx.o
       112         18          0          0          0         76   _printf_longlong_dec.o
        10          0          0          0          0          0   _printf_ls.o
        10          0          0          0          0          0   _printf_n.o
        10          0          0          0          0          0   _printf_o.o
       112         10          0          0          0        112   _printf_oct_int_ll.o
        10          0          0          0          0          0   _printf_p.o
        78          0          0          0          0        100   _printf_pad.o
         2          0          0          0          0          0   _printf_percent.o
         4          0          0          0          0          0   _printf_percent_end.o
        10          0          0          0          0          0   _printf_s.o
        82          0          0          0          0         72   _printf_str.o
        36          0          0          0          0         76   _printf_truncate.o
        10          0          0          0          0          0   _printf_u.o
        46          0          0          0          0        100   _printf_wchar.o
       188          6          8          0          0         80   _printf_wctomb.o
        10          0          0          0          0          0   _printf_x.o
        16          0          0          0          0         60   _snputc.o
        10          0          0          0          0         60   _sputc.o
        64          0          0          0          0         72   _wcrtomb.o
        18          0          0          0          0         68   aeabi_memset.o
       346          0          0          0          0         92   aeabi_sdiv.o
       216          6        148          0          0         80   bigflt0.o
      1456         30          0          0          0        336   btod.o
        56          6          0          0          0         72   c89vsnprintf.o
        16          0          0          0          0         68   exit.o
         6          0          0          0          0        136   heapauxi.o
        44         10        272          0          0         76   lc_ctype_c.o
        44         10         28          0          0         76   lc_numeric_c.o
         2          0          0          0          0          0   libinit.o
        30          0          0          0          0          0   libinit2.o
         2          0          0          0          0          0   libshutdown.o
         2          0          0          0          0          0   libshutdown2.o
         8          4          0          0         96         68   libspace.o
       122          0          0          0          0         72   lludiv10.o
        16          4          0          0          0         76   rt_ctype_table.o
         8          4          0          0          0         68   rt_locale_intlibspace.o
        64          0          0          0          0        108   rt_memclr.o
       186          0          0          0          0        144   rt_memcpy.o
         2          0          0          0          0          0   rtexit.o
        10          0          0          0          0          0   rtexit2.o
        40          0          0          0          0         60   rtudiv10.o
       136          4          0          0          0         72   strcmp.o
        76          6          0          0          0         72   strcpy.o
        62          0          0          0          0         80   sys_stackheap_outer.o
         2          0          0          0          0         68   use_no_semi.o
       124          4          0          0          0         72   d2f.o
      1096         26        128          0          0        112   ddiv.o
        88          0          0          0          0         92   dflti.o
       584         26          0          0          0         84   dmul.o
        48          0          0          0          0         60   ffixui.o
       176          4          0          0          0         80   fmul.o
        16          4          0          0          0         76   printf1.o
         0          0          0          0          0          0   usenofp.o
        44          4          0          0          0         60   fpclassify.o

    ----------------------------------------------------------------------
      8658        280        642          0        100       4680   Library Totals
        12          0          1          0          4          0   (incl. Padding)

    ----------------------------------------------------------------------

      Code (inc. data)   RO Data    RW Data    ZI Data      Debug   Library Name

      6470        212        513          0         96       4044   c_p.l
      2132         64        128          0          0        576   fz_ps.l
        44          4          0          0          0         60   m_ps.l

    ----------------------------------------------------------------------
      8658        280        642          0        100       4680   Library Totals

    ----------------------------------------------------------------------

==============================================================================


      Code (inc. data)   RO Data    RW Data    ZI Data      Debug   

     27504       1654       2904        332       2332     137701   Grand Totals
     27504       1654       2904         48       2332     137701   ELF Image Totals (compressed)
     27504       1654       2904         48          0          0   ROM Totals

==============================================================================

    Total RO  Size (Code + RO Data)                30408 (  29.70kB)
    Total RW  Size (RW Data + ZI Data)              2664 (   2.60kB)
    Total ROM Size (Code + RO Data + RW Data)      30456 (  29.74kB)

==============================================================================

